:10000000E0140120E1020000DD020000DD0200003A
:10001000DD020000DD020000DD0200000000000043
:10002000000000000000000000000000DD020000F1
:10003000DD02000000000000DD020000DD02000023
:10004000DD020000DD020000DD020000DD02000034
:10005000DD020000DD020000DD020000DD02000024
:10006000DD020000DD020000DD020000750A000074
:10007000DD020000DD020000DD020000DD02000004
:10008000DD020000DD020000DD020000DD020000F4
:10009000DD020000DD020000DD020000DD020000E4
:1000A000DD020000DD020000DD020000DD020000D4
:1000B000DD020000DD020000DD020000DD020000C4
:1000C000DD020000DD020000DD020000DD020000B4
:1000D000DD020000DD020000DD020000DD020000A4
:1000E000DD020000DD020000DD020000DD02000094
:1000F00000000000E1090000DD020000DD02000058
:10010000DD020000DD020000DD020000DD02000073
:10011000DD020000DD020000DD020000DD02000063
:10012000DD020000DD020000DD020000DD02000053
:10013000DD020000DD020000DD020000DD02000043
:10014000DD020000DD020000DD020000DD02000033
:10015000DD020000DD0200000000000000000000E1
:10016000000000000000000000000000000000008F
:10017000000000000000000000000000000000007F
:10018000DD020000DD020000DD020000DD020000F3
:1001900081080000DD020000DD020000DD02000039
:1001A000DD020000DD020000DD020000DD020000D3
:1001B000DD020000DD020000DD020000DD020000C3
:1001C000DD020000DD020000DD020000DD020000B3
:1001D000DD020000DD020000DD020000DD020000A3
:1001E000DD020000DD020000DD020000DD02000093
:1001F000DD020000DD020000DD020000DD02000083
:10020000DD0200000000000000000000DD02000030
:10021000DD020000DD020000DD020000DD02000062
:10022000DD020000DD020000DD020000DD02000052
:10023000DD020000DD020000DD020000DD02000042
:10024000DD020000DD020000DD020000DD02000032
:10025000DD020000DD020000DD020000DD02000022
:100260000000000010B5054C237833B9044B13B1DE
:100270000448AFF300800123237010BD000000206C
:1002800000000000440D00000C4B43B10C480D4928
:1002900010B5AFF300800C48036823B910BD0A48BD
:1002A000036833B97047094B002BF7D0BDE8104005
:1002B0001847064B002BF5D0184700BF0000000080
:1002C000440D000004000020440D00000000000068
:1002D00008B5014B984708BDD9040000FEE70000AF
:1002E00008B51C4B1C4A9A4210D01C4B194A9A4222
:1002F0000CD2013B9B1A23F0030304331344164929
:1003000051F8040B42F8040B9A42F9D1144B154AE8
:100310009A420AD2013B9B1A23F00303043313448D
:10032000002142F8041B9342FBD10F4B0F4A22F0ED
:100330007F029A60D3F8882042F47002C3F88820C4
:10034000BFF34F8FBFF36F8F094B9847094B984707
:10035000FEE700BF00000020440D00000000002068
:10036000DC1400200000002000ED00E00000000090
:10037000090C0000B50B0000104B93F8402002F070
:10038000FE0242F0010283F8402093F8302002F090
:10039000F00242F0030283F8302093F8412002F08B
:1003A000FE0242F0010283F8412093F8302002F06F
:1003B0000F0242F0300283F8302070470080004185
:1003C000064B4022C3F8A0204322C3F88C20044AE5
:1003D000536943F400535361704700BF001C004051
:1003E0000008004008B5054B98470022044905481D
:1003F000054B9847054B984708BD00BFC103000057
:1004000000340040881400205907000079030000E0
:10041000204B93F8CE2002F0FE0242F0010283F856
:10042000CE2093F8B72002F0F00242F00B0283F8DE
:10043000B72093F8CF2002F0FE0242F0010283F8C9
:10044000CF2093F8B72002F00F0242F0B00283F8F9
:10045000B72093F84D2002F0FE0242F0010283F82B
:100460004D2093F8362002F00F0242F0B00283F8DC
:10047000362093F84C2002F0FE0242F0010283F88D
:100480004C2093F8362002F0F00242F00B0283F881
:100490003620704700800041044B1A6942F48042C4
:1004A0001A61DA6942F00402DA617047000800401C
:1004B00008B5044B984704490448054B9847054B39
:1004C000984708BD990400000008004294140020D9
:1004D000410500001104000008B5094B9847094A7E
:1004E000536943F400735361074B98470246074929
:1004F0000748084B9847084B9847084B984708BD52
:100500002D08000000080040710A0000002400408F
:10051000B014002049060000E5030000B10400000B
:1005200010B5044B1C68044B984701462046034B0A
:10053000984710BD1C000020090800002508000095
:1005400038B50C46054658B1081C18BF01203122A9
:100550000449054B984721462846044B984738BD27
:100560000020F4E7500C0000A1070000DD080000A7
:10057000F8B5844607682FB18D683C460026C2F165
:10058000010E0BE00E4B9847F8BD7344A06803447E
:10059000AB420AD22368264653B11C466368934295
:1005A000F3D8A06803449B1AF2E7A74204D034466C
:1005B0002046044B9847F8BD6046014B9847F8BD6C
:1005C000C9070000F50700002DE9F04744690769F5
:1005D00001370761037E13F0010F13D1037E13F07F
:1005E000020F0FD154B36368FB1AA268934207D37A
:1005F000064600F11408DFF84890DFF848A012E042
:10060000BDE8F087037E43F002030376BDE8F08780
:100610007569E3682046984785B12C466B68FB1ADC
:10062000AA6893420AD34046C847237C012BEFD1E6
:1006300067603A4621464046D047E9E7BDE8F08783
:10064000FD0700007105000038B50D46044678B17D
:10065000081C18BF01203B220649074B9847294632
:100660002046064B984700202061054B236038BD8B
:100670000020F0E76C0C0000A1070000250A000034
:10068000C90500002DE9F8430F469046044628B3FB
:1006900031B3101C18BF0120F1221249124B9847A8
:1006A0000834124D2046A8470028FBD0013F002601
:1006B000DFF840900D4D17F8011F2046C84720462F
:1006C000A8470028FBD001364645F4D3084D204604
:1006D000A8470028FBD03046BDE8F8830020DBE7C0
:1006E0000020D9E7840C0000A1070000970B000050
:1006F000A10B0000890B00002DE9F8430F4690463E
:100700000446E0B1E9B1101C18BF01204FF4867215
:100710000D490E4B9847013F002608340C4DDFF879
:1007200034902046A8470028FBD02046C84707F849
:10073000010F01364645F4D33046BDE8F88300206A
:10074000E4E70020E2E700BF840C0000A1070000FE
:10075000AB0B00008F0B000038B50D46044698B176
:10076000081C18BF012034220849094B9847294624
:1007700004F10800074B9847034618B9064A62601F
:10078000064A2260184638BD0020ECE7840C0000C1
:10079000A10700005D0B0000F906000085060000BF
:1007A00000B900BE704703684BB18B4209D01B688B
:1007B0001BB19942FBD101207047002070470020F7
:1007C000704701207047000038B504460D46064BBF
:1007D000984780F0010039220449C0B2044B984781
:1007E00023682B60256038BDA7070000A00C00001F
:1007F000A107000003680B600160704703680BB13C
:100800001A68026018467047C0EB0010C30002333C
:100810000348A0FB03235B08642000FB03F0704740
:10082000ABAAAAAA0139FDD87047000008B5084A4A
:1008300013889BB21380074B9847074B9847074B89
:100840009847074B984740F6FF70064B984708BDFE
:1008500000400041AD090000C1090000A1090000ED
:10086000DD0900006908000010F0010F02D0024A03
:10087000024B1A62704700BF01010100001C0040DA
:1008800000B583B0144B186803685A6901921A6A5C
:1008900000925A6A019A12F0200F0BD0019A5A6105
:1008A0000D4B5A6803EBC203DB7BDB0902D04368C4
:1008B00003B19847009B13F0020F04D0064B186851
:1008C000836803B19847044B1B681B68009A1A623F
:1008D00003B05DF804FB00BF2000002030B40160CD
:1008E00010230B600368284A5A6002680023D36013
:1008F0000268264911610268C2F8B830026840F205
:100900000111C2F8BC10224901F120028A60CB60BB
:100910008022CA7301F2FC520A614B61C022CA757F
:100920004B60C1F8D83B01F53E631A4A01F59F516F
:10093000002442F8043C42F8084B80338B42F8D143
:10094000154B93F8602342F0020283F860230021E4
:10095000C3F8681304680E4A02F10805E5610468EB
:1009600003F53A73A36110600C4B4FF48012C3F887
:100970008820BFF34F8FBFF36F8FC3F888219A6031
:10098000084630BC704700BF030110000407020096
:1009900020000020041400201811002000E100E0D5
:1009A0000122014B5A71704700080040034BDA697D
:1009B00002F47C52DA6101221A747047001400407C
:1009C000044A054B9A611A46136913F0020FFBD0D3
:1009D000704700BF0626000300100040704700006B
:1009E00000B583B00D4B9B78DBB20193019B13F0F4
:1009F000020F06D00A4B1B681BB1084A5068984783
:100A000009E0019B13F0010F05D0054B5B6813B1A2
:100A1000024A5068984703B05DF804FB00000241A9
:100A2000CC14002038B50D46044630220D49003064
:100A300018BF01200C4B9847E56001232B80E2682A
:100A4000136913F0010FFBD148F280031380E368B0
:100A500020221A62E3684FF480725A81034B1C60B3
:100A6000002038BDC00C0000A10700008414002045
:100A70000020704710B5084B1C68E3689B8913F48D
:100A8000807F07D023680BB120469847E3684FF476
:100A900080729A8110BD00BF8414002070B487B0AA
:100AA00006466C460C4D0FCD0FC495E8030084E854
:100AB0000300009BB3420CD0324601205DF8203089
:100AC000934207D001300628F8D1002007B070BC4F
:100AD00070470020C0B2F9E7D80C000010B50446FA
:100AE000194B9847012805D040F2472217490020AA
:100AF000174B9847E36913F0010F11D1236813F0E6
:100B0000020F0BD0E36913F0030FFBD1236823F02E
:100B100002032360E36913F0020FFBD10523236076
:100B2000E36913F0010FFBD10A4B23604FF440330C
:100B30006360094BA3604FF6B943A3810020A07303
:100B400084F8300010BD00BF9D0A0000080D0000B1
:100B5000A1070000040010400200700038B50C46E8
:100B60000546BB220549003018BF0120044B9847B9
:100B70002C602046034B984738BD00BF080D00008D
:100B8000A1070000DD0A000003689962704703684E
:100B9000986AC0B270470368187E00F00100704781
:100BA0000368187EC0F3400070470368187EC0F3E6
:100BB0008000704708B5114B9847114B4FF4805295
:100BC000C3F89820C3F8882002F18042C3F8A82017
:100BD0004FF04042C3F8A82093F8CC2002F0FE0268
:100BE00083F8CC204FF4FA76064D1C463046A847D1
:100BF0004FF48053C4F89C30F8E700BFD1020000E6
:100C0000008000412105000070B50D4E0D4CA41B65
:100C1000A4100025A54209D10B4E0C4C00F082F81F
:100C2000A41BA4100025A54205D170BD56F825309F
:100C300098470135EEE756F8253098470135F2E739
:100C4000300D0000300D0000300D0000340D0000AC
:100C50002E2E2F68616C2F7372632F68616C5F6D2D
:100C600061635F6173796E632E6300002E2E2F68BF
:100C7000616C2F7372632F68616C5F74696D65724C
:100C80002E6300002E2E2F68616C2F7372632F6805
:100C9000616C5F75736172745F73796E632E63004C
:100CA0002E2E2F68616C2F7574696C732F737263AD
:100CB0002F7574696C735F6C6973742E6300000028
:100CC0002E2E2F68706C2F7274632F68706C5F7299
:100CD00074632E63000000000030004000340040C8
:100CE0000020014100400141000000430004004396
:100CF00000000000000000000000000000000000F4
:100D000000000000000000002E2E2F68706C2F7372
:100D10006572636F6D2F68706C5F736572636F6D62
:100D20002E630000F8B500BFF8BC08BC9E467047B3
:100D300089020000F8B500BFF8BC08BC9E467047A9
:040D40006502000048
:00000001FF
