S01500005465737450726F6A65637430312E7372656337
S113000050000120E1020000DD020000DD020000DA
S1130010DD020000DD020000DD020000000000003F
S1130020000000000000000000000000DD020000ED
S1130030DD02000000000000DD020000DD0200001F
S1130040DD020000DD020000DD020000DD02000030
S1130050DD020000DD020000DD020000DD02000020
S1130060DD020000DD020000DD0200009906000050
S1130070DD020000DD020000DD020000DD02000000
S1130080DD020000DD020000DD020000DD020000F0
S1130090DD020000DD020000DD020000DD020000E0
S11300A0DD020000DD020000DD020000DD020000D0
S11300B0DD020000DD020000DD020000DD020000C0
S11300C0DD020000DD020000DD020000DD020000B0
S11300D0DD020000DD020000DD020000DD020000A0
S11300E0DD020000DD020000DD020000DD02000090
S11300F00000000005060000DD020000DD02000033
S1130100DD020000DD020000DD020000DD0200006F
S1130110DD020000DD020000DD020000DD0200005F
S1130120DD020000DD020000DD020000DD0200004F
S1130130DD020000DD020000DD020000DD0200003F
S1130140DD020000DD020000DD020000DD0200002F
S1130150DD020000DD0200000000000000000000DD
S1130160000000000000000000000000000000008B
S1130170000000000000000000000000000000007B
S1130180DD020000DD020000DD020000DD020000EF
S1130190DD020000DD020000DD020000DD020000DF
S11301A0DD020000DD020000DD020000DD020000CF
S11301B0DD020000DD020000DD020000DD020000BF
S11301C0DD020000DD020000DD020000DD020000AF
S11301D0DD020000DD020000DD020000DD0200009F
S11301E0DD020000DD020000DD020000DD0200008F
S11301F0DD020000DD020000DD020000DD0200007F
S1130200DD0200000000000000000000DD0200002C
S1130210DD020000DD020000DD020000DD0200005E
S1130220DD020000DD020000DD020000DD0200004E
S1130230DD020000DD020000DD020000DD0200003E
S1130240DD020000DD020000DD020000DD0200002E
S1130250DD020000DD020000DD020000DD0200001E
S11302600000000010B5054C237833B9044B13B1DA
S11302700448AFF300800123237010BD0000002068
S113028000000000CC0700000C4B43B10C480D49A2
S113029010B5AFF300800C48036823B910BD0A48B9
S11302A0036833B97047094B002BF7D0BDE8104001
S11302B01847064B002BF5D0184700BF000000007C
S11302C0CC07000004000020CC0700000000000060
S11302D008B5014B984708BD79030000FEE700000C
S11302E008B51C4B1C4A9A4210D01C4B194A9A421E
S11302F00CD2013B9B1A23F0030304331344164925
S113030051F8040B42F8040B9A42F9D1144B154AE4
S11303109A420AD2013B9B1A23F003030433134489
S1130320002142F8041B9342FBD10F4B0F4A22F0E9
S11303307F029A60D3F8882042F47002C3F88820C0
S1130340BFF34F8FBFF36F8F094B9847094B984703
S1130350FEE700BF00000020CC07000000000020E2
S1130360500000200000002000ED00E0000000002C
S113037015070000C106000008B5074B9847074A57
S1130380536943F400735361054B9847024605498A
S11303900548064B984708BD710500000008004059
S11303A0950600000024004024000020A904000059
S11303B010B5044B1C68044B984701462046034B78
S11303C0984710BD1C0000204D0500006905000081
S11303D0F8B5844607682FB18D683C460026C2F103
S11303E0010E0BE00E4B9847F8BD7344A06803441C
S11303F0AB420AD22368264653B11C466368934233
S1130400F3D8A06803449B1AF2E7A74204D0344609
S11304102046044B9847F8BD6046014B9847F8BD09
S11304200D050000390500002DE9F047446907690E
S113043001370761037E13F0010F13D1037E13F01C
S1130440020F0FD154B36368FB1AA268934207D317
S1130450064600F11408DFF84890DFF848A012E0DF
S1130460BDE8F087037E43F002030376BDE8F0871E
S11304707569E3682046984785B12C466B68FB1A7A
S1130480AA6893420AD34046C847237C012BEFD184
S113049067603A4621464046D047E9E7BDE8F08721
S11304A041050000D103000038B50D46044678B17B
S11304B0081C18BF01203B220649074B98472946D0
S11304C02046064B984700202061054B236038BD29
S11304D00020F0E75C070000E50400004906000086
S11304E02904000000B900BE704703684BB18B4279
S11304F009D01B681BB19942FBD101207047002031
S113050070470020704701207047000038B504464A
S11305100D46064B984780F0010039220449C0B2C9
S1130520044B984723682B60256038BDEB0400001A
S113053074070000E504000003680B600160704765
S113054003680BB11A68026018467047C0EB0010CC
S1130550C30002330348A0FB03235B08642000FBB1
S113056003F07047ABAAAAAA0139FDD8704700006E
S113057008B5084A13889BB21380074B9847074B6A
S11305809847074B9847074B984740F6FF70064B30
S1130590984708BD00400041D1050000E505000072
S11305A0C505000001060000AD05000010F0010FB4
S11305B002D0024A024B1A62704700BF01010100D7
S11305C0001C00400122014B5A7170470008004092
S11305D0034BDA6902F47C52DA6101221A7470471F
S11305E000140040044A054B9A611A46136913F03B
S11305F0020FFBD0704700BF062600030010004026
S11306007047000000B583B00D4B9B78DBB20193BB
S1130610019B13F0020F06D00A4B1B681BB1084A5A
S11306205068984709E0019B13F0010F05D0054B72
S11306305B6813B1024A5068984703B05DF804FB45
S1130640000002414000002038B50D460446302227
S11306500D49003018BF01200C4B9847E560012379
S11306602B80E268136913F0010FFBD148F2800379
S11306701380E36820221A62E3684FF480725A817F
S1130680034B1C60002038BD94070000E504000003
S1130690200000200020704710B5084B1C68E36858
S11306A09B8913F4807F07D023680BB120469847B9
S11306B0E3684FF480729A8110BD00BF20000020CF
S11306C008B5114B9847114B4FF48052C3F898204A
S11306D0C3F8882002F18042C3F8A8204FF04042BA
S11306E0C3F8A82093F8CC2002F0FE0283F8CC20B3
S11306F04FF4FA76064D1C463046A8474FF4805313
S1130700C4F89C30F8E700BFD1020000008000412B
S1130710B103000070B50D4E0D4CA41BA4100025B0
S1130720A54209D10B4E0C4C00F040F8A41BA410B8
S11307300025A54205D170BD56F8253098470135EE
S1130740EEE756F8253098470135F2E7B807000080
S1130750B8070000B8070000BC0700002E2E2F6861
S1130760616C2F7372632F68616C5F74696D65725D
S11307702E6300002E2E2F68616C2F7574696C73C4
S11307802F7372632F7574696C735F6C6973742E45
S1130790630000002E2E2F68706C2F7274632F6814
S11307A0706C5F7274632E6300000000F8B500BFC4
S11307B0F8BC08BC9E46704789020000F8B500BF2B
S10F07C0F8BC08BC9E46704765020000AF
S9030000FC
