:10000000B88F0120DD020000D9020000D9020000F3
:10001000D9020000D9020000D9020000000000004F
:10002000000000000000000000000000D9020000F5
:10003000D902000000000000D90200006D5D000040
:10004000D9020000D9020000D9020000D902000044
:10005000D9020000D9020000D9020000D902000034
:10006000D9020000D9020000D9020000410D0000B1
:10007000D9020000D9020000D9020000D902000014
:10008000D9020000D9020000D9020000D902000004
:10009000D9020000D9020000D9020000D9020000F4
:1000A000D9020000D9020000D9020000D9020000E4
:1000B000D9020000D9020000D9020000D9020000D4
:1000C000D9020000D9020000D9020000D9020000C4
:1000D000D9020000D9020000D9020000D9020000B4
:1000E000D9020000D9020000D9020000D9020000A4
:1000F00000000000D50C0000D9020000D902000069
:10010000D9020000D9020000D9020000D902000083
:10011000D9020000D9020000D9020000D902000073
:10012000D9020000D9020000D9020000D902000063
:10013000D9020000D9020000D9020000D902000053
:10014000D9020000D9020000D9020000D902000043
:10015000D9020000D90200000000000000000000E9
:10016000000000000000000000000000000000008F
:10017000000000000000000000000000000000007F
:10018000D9020000D9020000D9020000D902000003
:10019000C1080000D9020000D9020000D902000005
:1001A000D9020000D9020000D9020000D9020000E3
:1001B000D9020000D9020000D9020000D9020000D3
:1001C000D9020000D9020000D9020000D9020000C3
:1001D000D9020000D9020000D9020000D9020000B3
:1001E000D9020000D9020000D9020000D9020000A3
:1001F000D9020000D9020000D9020000D902000093
:10020000D90200000000000000000000D902000038
:10021000D9020000D9020000D9020000D902000072
:10022000D9020000D9020000D9020000D902000062
:10023000D9020000D9020000D9020000D902000052
:10024000D9020000D9020000D9020000D902000042
:10025000D9020000D9020000D9020000D902000032
:100260000000000010B5054C237833B9044B13B1DE
:100270000448AFF300800123237010BD80000020EC
:1002800000000000E87200000C4B43B10C480D491F
:1002900010B5AFF300800C48036823B910BD0A48BD
:1002A000036833B97047094B002BF7D0BDE8104005
:1002B0001847064B002BF5D0184700BF0000000080
:1002C000E872000084000020E872000000000000D6
:1002D000004B1847A9040000FEE7000008B5144AC7
:1002E000144B9A4218D1144B144A002193421CD348
:1002F000134A144B22F07F029A60D3F8882042F40C
:100300007002C3F88820BFF34F8FBFF36F8F0E4B7F
:1003100098470E4B9847FEE70D49043A8B42E2D2CC
:1003200052F8040F43F8040BF8E743F8041BDDE729
:10033000E87200000000002080000020B48F002040
:100340000000000000ED00E059600000A95D000021
:100350007400002030B54A1CC4B2C0F347121648DE
:1003600004F01F0300EBC21007D1184490F840308E
:1003700003F0FE0380F8403030BDC5185B0895F8E7
:10038000402002F0FE02184442F0010285F84020AD
:1003900090F8303014F0010F19BF03F00F0343EA57
:1003A000011101F00F0103F0F00314BFC9B21943AA
:1003B00080F8301030BD00BF0080004110B5054C02
:1003C00003210020A047234603490120BDE8104037
:1003D000184700BF5503000003000100064B4022F0
:1003E000C3F8A0204322C3F88C20044A536943F485
:1003F00000535361704700BF001C004000080040DC
:1004000010B5054B9847054B05490648002298470B
:10041000054BBDE810401847DD030000E107000070
:10042000003400402C7F0020BD03000010B50849B7
:10043000084C2E20A04708492F20A04707490D202F
:10044000A047234606490C20BDE81040184700BFCE
:100450000B002E00550300000B002F000B000D00B9
:100460000B000C00044B1A6942F480421A61DA69ED
:1004700042F00402DA6170470008004010B5054BF5
:100480009847054B054906489847064BBDE810407C
:10049000184700BF650400000D0600000008004278
:1004A000107F00202D04000010B50A4B98470A4A1F
:1004B000536943F400735361084B98470849094B4B
:1004C000024609489847094B9847094BBDE8104038
:1004D000184700BF6D080000000800403D0D0000F7
:1004E000002400403D070000587F00200104000068
:1004F0007D04000037B50C460DF106038188064DDA
:1005000000680122A84720B9BDF80630C3F3800374
:10051000237003B030BD00BF750600000E4A08B559
:1005200042610E4B0E4A8261622283F831204FF401
:10053000C0621A850B4A11689288A3F82F20062200
:1005400083F82A2046F66562C3F82B105A86064BBC
:100550009847002008BD00BF6D5A0000747F00203E
:10056000AD0E00009C000020850E000030B589B063
:1005700005460E4C0E4805A9A04706A90D48A04700
:1005800007A90D48A0470D4B2A681A60AA889A80CF
:100590000B4B02930B4B01930B4B009306AA07AB3B
:1005A00005A90A4C0A48A04709B030BDF91F000050
:1005B0005870000066700000747000009C000020FD
:1005C0006D5B00001D050000107F0020712A0000F7
:1005D000747F0020004B184741190000004B18475A
:1005E000750E0000C1F3090102F480620A438283A0
:1005F000104670470368184743681847436903B1BA
:1006000018477047836903B118477047004B184774
:100610000D090000004B1847B5090000004B1847B2
:10062000C5090000004B1847C50A0000004B1847D9
:10063000B90B000010B431B101290DD06FF00C00DE
:100640005DF8044B70474261002A054A054B5DF88E
:10065000044B08BF002218478261002A024AF5E7CE
:10066000FD050000150C000005060000004B1847B2
:100670003D0C000010B4024CA4465DF8044B6047EA
:100680005D0C0000F0B505681DB90F4BBDE8F040EA
:100690001847D1F808E02C460026C2F1010C636827
:1006A000A768934295BFDB1963449B1ADB19734516
:1006B00007D22368264613B93046044BE6E71C46AA
:1006C000EDE7A542F8D1E0E71B0800002308000091
:1006D0002DE9F0470669037E44690136DA070546CD
:1006E000066110D4037E9B070DD4DFF84880DFF845
:1006F000489000F1140724B16368A268F31A93428A
:1007000007D2BDE8F0872B7E43F002032B76BDE8CD
:10071000F0873846C047237C012B04D166603246FF
:1007200021463846C847D5F814A0E36820469847C4
:100730005446E0E72B0800008506000010B5044B86
:10074000044698470020034B2061236010BD00BF82
:10075000110D0000D10600002DE9F8430F4C0F46A3
:10076000164600F10805A1462846A0470028FBD000
:10077000DFF830800024395D2846C0472846C84746
:100780000028FBD00134B442F5D3054E2846B047CB
:100790000028FBD02046BDE8F88300BF570E0000BC
:1007A000610E0000490E00002DE9F843DFF82890A3
:1007B000DFF828800F461646002400F10805284679
:1007C000C8470028FBD02846C04738550134B442FA
:1007D000F5D32046BDE8F8836B0E00004F0E0000F5
:1007E00010B5054B04460830984718B9034B6360B1
:1007F000034B236010BD00BF210E0000A9070000BD
:100800005907000008B50830014B9847002008BD83
:100810002D0E000008600020704703680B60016027
:10082000704703680B600160704703680BB11A687A
:100830000260184670470000044B1968024609B967
:1008400003491960186802441A607047A400002028
:10085000B88F01204FF0FF3070474FF400534B60CA
:1008600000207047012070470020704710B5094AEA
:1008700013889BB21380084B9847084B9847084B46
:100880009847084B984740F6FF70074BBDE810406B
:10089000184700BF00400041A50C0000B90C000043
:1008A000990C0000D10C0000AD080000C30742BF46
:1008B000014B024A1A627047001C0040010101000E
:1008C00013B5114C206803685A6900921A6A0192A4
:1008D0005A6A009A92060AD5009A5A61636804EB34
:1008E000C303DB7BDB0902D0436803B19847019B5C
:1008F0009B0703D52068836803B198472368019A52
:100900001B681A6202B010BDC00000201023F0B5B1
:1009100001600B60214B4B600022214BCA600B61D0
:1009200040F20113C1F8B820C1F8BC301D4B03F1EF
:1009300020049C608024DA60DC7303F2FC541C61A8
:10094000C0245A615A60DC75C3F8D82B03F53E64A5
:1009500003F54667154607EB02161651A61808322E
:10096000802A7560F7D193F8582C186042F0020283
:1009700083F8582C0C4A0D4BC2F868530C4ACA61D4
:100980004FF480128C61C3F88820BFF34F8FBFF300
:100990006F8F0020C3F888219A60F0BD030110001A
:1009A00004070200C0000020B811002000E100E0B0
:1009B000C80000200268136843F00C031360002095
:1009C000704700002DE9F74F3B4CD4F8D83B04EBBF
:1009D000C3038046DB7BDB09164613D0D4F8D83B33
:1009E00004EBC3035B7BDB090CD1D4F8D82B531C7D
:1009F000012B88BF02F1FF3304EBC303DA7B42F023
:100A00008002DA73636804EBC303DB7BDB0950D03D
:100A100040F2DC539E420AD96268531C012B88BF06
:100A200002F1FF3304EBC303DB7BDB0941D06368D6
:100A3000C4F8D83BDFF888B0204B0D4601F6B83A31
:100A400040F2DC594E4560680193374628BF4F4657
:100A500029463A4609FB00B098476268019B04EBBF
:100A6000C202F61BD76001BF626804EBC202517B71
:100A700041F0800108BF51736268013262606268B0
:100A8000022A05D100226260E27D42F04002E27556
:100A90001EB105F2DC555545D4D1BFF34F8FD8F8C0
:100AA0000020136843F400731360002003B0BDE816
:100AB000F08F6FF01B00F9E7C0000020BF6000005E
:100AC000E00000202DE9F84F0B463749374817461C
:100AD0004FF0FF3500248846D1F8682322440F2ABE
:100AE00088BF103A00EBC20292F8E06BF6071ED501
:100AF00092F8E56B16F0400F18BF2546F60904F191
:100B0000010611D0B5F1FF3F0ED0B2F8E42BC2F3CD
:100B10000C02974228BF17464FF00009CA46B2455B
:100B20000DD14846BDE8F88F102E3446D4D16A1C4A
:100B300001D1264600E02E464FF0FF34ECE7611C61
:100B400017D0AA4515D3A24513D897B1802FD8F84E
:100B500068131748BB4628BF4FF0800B00EBC1114C
:100B60005A461846134B984703465B44D944A7EBB3
:100B70000B07D8F868230D4901EBC2020AF1010AFC
:100B800092F8E01B6FF3000182F8E01BD8F86823AD
:100B90000132C8F86823D8F86823102A04BF00225D
:100BA000C8F86823BBE700BFB8110020C0000020D0
:100BB000200D0020BF600000F0B5144C144F002041
:100BC000014602462546D7F8683313440F2B88BFE9
:100BD000103BDB00E61896F8E0EB1EF0010F13D097
:100BE00096F8E56B760600D431B1E918B1F8E41B4C
:100BF000C1F30C01084401212B4493F8E53BDB09C8
:100C000002D10132102ADED1F0BD00BFC0000020A9
:100C1000B811002051B101290DD142600368802133
:100C200012B1996200207047D962FBE703688260C5
:100C300002209862F6E76FF00C007047036810B569
:100C400003EBC1001468C0F888402A319488D28828
:100C5000C0F88C4043F82120002010BD10B500687A
:100C6000920402F4F802046842F0C042C90542F45A
:100C7000003201F0786144F010040A4304604263DA
:100C800082685207FCD5426B1A80036823F0100378
:100C90000360002010BD0000014B01225A71704713
:100CA00000080040034BDA6902F47C52DA61012249
:100CB0001A74704700140040034B044A9A611A6981
:100CC0009207FCD5704700BF0010004006260003C5
:100CD0007047000007B50C4A9378DBB20193019B83
:100CE000990707D5094B1B6823B15068984703B093
:100CF0005DF804FB019BDB07F9D5044B5B68002B17
:100D0000F5D0014AF1E700BF00000241AC7F0020AE
:100D10000123C1600B800B6913F00103FBD148F282
:100D200080020A8020220A624FF480724A81024ABD
:100D300010601846704700BF24150020002070473F
:100D4000074B10B51C68E3689B89DB0507D5236852
:100D50000BB120469847E3684FF480729A8110BD2A
:100D600024150020C3690B42FCD17047C3690B42B4
:100D7000FCD1704708B50321034B9847036823F063
:100D80000203036008BD00BF6D0D000010B5C3690C
:100D90000F4C13F0010F024608D103689B0703D5DF
:100DA0000C4B98470221A0470523136010460121F0
:100DB000A047094B13604FF440335360074B9360D7
:100DC00000204FF6B9439381907382F8300010BD34
:100DD0006D0D0000750D0000040010400200700051
:100DE00070B503210D4C0246A047036843F002038F
:100DF00003604FF6FF75102604211046A047538B61
:100E0000C3F30113012B00D170BD013D002DF3DCB4
:100E100004211046A0475683EEE700BF650D000091
:100E20000160014B084618478D0D0000026808B5A7
:100E30000321044B10469847136843F002031360E4
:100E400008BD00BF6D0D000003689962704703681C
:100E5000986AC0B270470368187E00F001007047BE
:100E60000368187EC0F3400070470368187EC0F323
:100E70008000704708B50069014B9847002008BD05
:100E8000E10D00001FB50346046A53F82B0F0190D3
:100E90009B88ADF80830002101AA2046024B8DF84E
:100EA0000C10984704B010BD6D0600002DE9F0410C
:100EB0004A89076A088982420D4606D14968144B5F
:100EC000384698470020BDE8F081C31C4FF6FC70FF
:100ED0001840104B98470646B0B1DFF840800346F3
:100EE0002C46628961681846C047628924680346B7
:100EF0001344002CF5D12A89054B314638469847D2
:100F00003046054B9847DDE74FF0FF30BDE8F081F4
:100F10001D060000C5280000AD270000BF600000CE
:100F20002DE9F047DFF86C80DFF86C90164F05462E
:100F30002E6A3046C04781B221B300220320C84741
:100F40000446C0B1428941683046B8476368988911
:100F50000E4B9847B0F5006F03D040F60603984259
:100F600005D12B692946204698470028E0D0204625
:100F7000074B9847DCE7024601463B463046BDE852
:100F8000F0471847BDE8F087250600009D0F0000D8
:100F9000252C00002D0600007D2C000040BA80B2F8
:100FA000704740BA80B2704700BA7047004B18478C
:100FB000A90F0000037B8B421FBF00230173437303
:100FC00043837047038B30B54469E51885F8F0100A
:100FD000991C013314FA83F3018383F8F02030BDA8
:100FE000028B436910B51344541C048383F8F0103A
:100FF00010BD038B426930B5D4180D0A84F8F05047
:101000009C1C013312FA83F3048383F8F01030BD83
:10101000038B426930B5D4180D0E84F8F0505C1C77
:1010200012FA84F40D0C84F8F0509C1C12FA84F42B
:101030000D0A84F8F0501C1D033312FA83F3048365
:1010400083F8F01030BD10B500B9FEE7038B42699C
:10105000591C13440183FF2183F8F0100021038BF6
:10106000432B00D910BD5C1C1344048383F8F0109B
:10107000F5E700002DE9F0410C461646804600B920
:10108000FEE701B9FEE70022434B4FF49A71104688
:1010900098470346206100287AD0617B3F4A11B906
:1010A0001168013111605F68106820600123676179
:1010B0003B707B70002598F82A30BB70FD70384B70
:1010C000984763697860082E1D725D729D72DD72AB
:1010D0001D735D739D73DD7307D0042E05D0032E41
:1010E00006D1227B043A012A02D8D8F80420DA601B
:1010F00000221A745A749A74DA741A755A759A75A9
:10110000DA751A765A769A76DA7698F82A5003F1D2
:101110001C0190B2854288BF08EB020002F1010277
:101120008CBF90F82B000020102A01F8010BF0D1A1
:1011300003F12C0203F16C01002002F8010B8A423A
:10114000FBD103F1EC00002102F8011B8242FBD12C
:101150006FF07D00632283F8ED00532083F8EC20CC
:1011600083F8EF2083F8EE0000222183F03303F8A8
:10117000012B0132442AFAD1012220463521094BA4
:10118000984720463146084B98470020BDE8F0813B
:101190004FF0FF30BDE8F0817D2C00000000002002
:1011A000A90F0000C50F0000E10F000010B50446B4
:1011B00000B9FEE7006908B1024B9847002323619C
:1011C000636110BD252C000073B5446A204B0646B0
:1011D0000421204698470322214630461D4B98475C
:1011E0000546D8B90222392120461B4B9847318D3C
:1011F0001A4B204698472046194B9847218B206967
:10120000184BF03189B2984700964323164A21695A
:101210006068164EB0472046154B9847637B0133F4
:10122000DBB2092B98BFC3EB431263739DBF03EB83
:101230008203DB009BB242F210734FF4FA7228462D
:1012400003F2F31393FBF2F3638302B070BD00BFAC
:10125000B50F000075100000C50F0000F30F00006F
:1012600047100000A92D000080700000B555000057
:10127000AD110000F7B5446A0023064663620621FB
:101280002046264B9847012221463046244B98475A
:10129000054600282CD10222224F39212046B8478A
:1012A000214B318D20469847042237212046B847EC
:1012B0001E4F01212046B84703212046B8471C2174
:1012C0002046B84706212046B8472046184B984785
:1012D000218B2069174BF03189B298470096432340
:1012E000154A21696068154EB0472046144B98474F
:1012F000637B0133DAB2052A9CBF4FF47A739340C3
:10130000627388BF4EF660234FF4FA72284603F2E8
:10131000F31393FBF2F3638303B0F0BDB50F00004A
:1013200075100000C50F0000F30F0000E10F000072
:1013300047100000A92D000080700000B555000086
:10134000AD1100002DE9F743446A334B06460121F5
:1013500020469847032221463046304B98470546A1
:10136000002842D12E4FDFF8D890DFF8D880022233
:1013700039212046B8472B4B318D2046984704220F
:1013800032212046B847606AC84701462046C04718
:10139000042236212046B847206AC8470146204625
:1013A000C047042237212046B8471F4F012120465D
:1013B000B84703212046B8471C212046B8470621DC
:1013C0002046B8472046194B9847218B2069184B77
:1013D000F03189B2984700964323164A2169606824
:1013E000154EB0472046154B9847637B0133DAB260
:1013F000052A9CBF4FF47A739340627388BF4EF600
:1014000060234FF4FA72284603F2F31393FBF2F3CE
:10141000638303B0BDE8F083B50F000075100000D2
:10142000C50F0000F30F0000E10F0000471000009F
:10143000A92D000080700000B5550000AD1100001E
:10144000AD0F000011100000F7B5446A264B0646A8
:10145000032120469847032221463046234B9847D4
:101460000546002827D1022239212046204FB847BF
:10147000204B4FF410712046984704223221204619
:10148000B8471D4B606A98471C4B01462046984759
:1014900020461B4B9847218B20691A4BF03189B2AB
:1014A000984700964323184A21696068174EB04751
:1014B0002046174B9847637B0133DBB2092B98BF5B
:1014C000C3EB431263739DBF03EB8203DB009BB24C
:1014D00042F210734FF4FA72284603F2F31393FBAF
:1014E000F2F3638303B0F0BDB50F00007510000088
:1014F000C50F0000F30F0000AD0F00001110000039
:1015000047100000A92D000080700000B5550000B4
:10151000AD11000038B5446A084B05460821204645
:101520009847074B002204F1240128469847637B23
:10153000013363730123638338BD00BFB50F00001F
:101540005159000037B5054600B9FEE7446A04B9B1
:10155000FEE7636B581C0BD03C221E33B3FBF2F347
:101560004FF6FF72934228BF1346002B39D0A38356
:10157000A36B591C0BD03C221E33B3FBF2F34FF686
:10158000FF72934228BF1346002B2CD0E383E38BDA
:10159000A28B9A4202D30BB10023A383A37B23B374
:1015A000A36A0093E36A01932BB9636A009A13401C
:1015B00043F08073019304F124012846114B9847AE
:1015C00069462846104B984701A928460F4B984773
:1015D00028460F4B98470A2120460E4B984703B0E8
:1015E00030BD0123C3E70123D0E794F824301A0665
:1015F00001D4FF23D5E7BF2B8CBF6FF07F434FF69D
:10160000FF73CEE7FD290000CD2A0000C52A0000A7
:10161000E12A0000B50F000037B5054600B9FEE726
:10162000446A002C34D0237B082B31D10A68636ACA
:101630009A422DD10C212046164B98470422214670
:101640002846154B9847F0B9042232212046134B07
:101650009847134B606A9847124B014620469847BB
:101660002046114B9847218B2069104BF03189B2ED
:101670009847009543230E4A216960680D4DA8479D
:1016800020460D4B9847637B0133637314236383B8
:1016900003B030BDB50F000075100000C50F00008D
:1016A000AD0F00001110000047100000A92D000030
:1016B00080700000B5550000AD11000073B5446A9C
:1016C000204B0646052120469847032221463046F6
:1016D0001D4B98470546E0B90222392120461B4B95
:1016E0009847318D1A4B204698472046194B98470A
:1016F000218B2069184BF03189B29847009643231B
:1017000004F1200221696068144EB0472046144B52
:101710009847637B0133DBB2092B98BFC3EB4312BD
:1017200063739DBF03EB82031B019BB244F62063EE
:101730004FF4FA72284603F2F31393FBF2F3638338
:1017400002B070BDB50F000075100000C50F00009D
:10175000F30F000047100000A92D0000B555000050
:10176000AD110000134B70B51C68134D134E04B936
:1017700070BD636A6BB1DA8B511E012AD9830AD11D
:101780001B7B03F0FB02012A01D00A2B01D120466A
:10179000B0472468EBE79A8B511E012A9983F8D150
:1017A0001B7B03F0FB02012A01D00A2BF1D120465A
:1017B000A847EEE7808F0020BD160000C911000089
:1017C000F7B5446A274B0546002120469847002379
:1017D00023626362A362E362A363636323630722FA
:1017E00021462846204B9847064698B920461F4B6D
:1017F0001F4F9847218B20691E4BF03189B29847C3
:101800000095432304F1200221696068B84720460F
:10181000194B9847637B0133DBB2092B98BFC3EBAD
:10182000431263739DBF03EB8203DB009BB242F262
:1018300010734FF4FA72284603F2F31393FBF2F39A
:1018400063830E4B984728460D490E4B9847284610
:101850000B490D4B9847284609490C4B9847304691
:1018600003B0F0BDB50F0000751000004710000078
:10187000B5550000A92D0000AD110000192B000086
:1018800084700000FD290000C52A0000CD2A000058
:10189000F8B5224B224D1C68224F234E04B9F8BDE7
:1018A000636A23B15A8B012A03D9013A5A83246807
:1018B000F4E7FCD100225A831A7B0C2A01D0062AB5
:1018C00002D12046A847F2E7012A06D15B7B052B0F
:1018D000204619D8154B9847E9E7082A07D15B7BC2
:1018E000012B204694BF124B124B9847DFE7052A85
:1018F00002D12046104BEEE7042A07D15B7B082B70
:10190000204601D80D4BE6E7B047DAE7032ACED1EF
:101910005B7B012B2046D5D8B847C8E7808F0020D5
:101920007512000049140000C117000045130000A3
:101930001515000045150000BD160000C911000076
:1019400010B5074B9847074B9847074B9847074BED
:101950009847074B9847074BBDE81040184700BF12
:10196000792700006D290000F92900007D5300004F
:10197000412F0000315200002DE9FF410446884606
:101980001646242100220120194B9847054658B3DA
:1019900027684468002323716371A371E37184F89D
:1019A000008066703B4604F1080207F11C0153F801
:1019B000040B42F8040B8B42F9D10026A670E670A6
:1019C00069890C4B2046984704AA6080FB6842F85E
:1019D000043D012301930096FF2331462846064C1F
:1019E000A0472846054B984704B0BDE8F08100BFEA
:1019F0007D2C0000591C0000851F0000252C0000D4
:101A00002DE9F04F4668464F3578DFF8388105F00C
:101A10000F05AD00C5F1000B0FFA8BFB87B08946AF
:101A200059460446B847B0B92389032B13D96368D4
:101A30001B78082B0FD1DFF804A13A4ADAF800002E
:101A4000494600F0F00305939047CDF810A010B977
:101A5000059BE02B05D12046434607B0BDE8F04F7B
:101A600018472389072BF6D920462F4B9847002883
:101A7000F1D1222120462DB2B847002849D029466D
:101A80002046B84702460028E5D12189274B02208D
:101A9000984782460028DED02146254A90470028F4
:101AA000D9D159465046DAF80460B8470028D2D157
:101AB0002046C0475446049B62681B68F3601D4B78
:101AC0001B6833610023137053884FF6F6718B4205
:101AD0008CBF0933083353804FF0FF0A0023B372E1
:101AE000F3721421144B86F808A030469847294613
:101AF00070812046B84702460028ACD101238DE80A
:101B00000C00CDF8089053460C490D4D2046A847CF
:101B1000A1E76FF021012046B84700289BD1CAE712
:101B2000CD2B0000C51F0000691C00007D2C0000AB
:101B30004D2E0000BC7F0020591C0000C47F0020F7
:101B4000891E0000252C00000A4604300321014BA9
:101B5000184700BF791900000A4604300B21014BD9
:101B6000184700BF7919000013B5002310F00102D7
:101B7000ADF806301FD0994224DD431C00788DF863
:101B8000070001390020012917DC02D11B788DF8EC
:101B90000630BDF80630034498B200EB134398B208
:101BA00000EB134022B103029BB2C0F3072018439D
:101BB00080B202B010BD0346E4E733F8024B0239AD
:101BC0002044E0E71846E4E72DE9F0470025DFF878
:101BD00084A00646884691461F462C461EBB25B16A
:101BE000210289B2C4F307240C43D9F80020D8F8A5
:101BF0000030174D100C10FA82F010FA83F000EB51
:101C0000134004443846A8470444BDF82000A847C0
:101C1000204484B204EB1044A0B200EB1440C04353
:101C200080B2BDE8F08771897068D0477389044439
:101C3000A0B2DB0700EB144407D52302C5F1010570
:101C40009BB2C4F30724EDB21C433668C6E700BF5D
:101C50009D0F0000691B000008B5024B9847C04368
:101C600080B208BD691B0000F8B50025104F06467C
:101C70002C4646B925B123029BB2C4F307241C436A
:101C8000E04380B2F8BD71897068B8477389204419
:101C900084B2DB0704EB104407D52302C5F101052C
:101CA0009BB2C4F30724EDB21C433668E1E700BFE2
:101CB000691B00000C4B1B684BB90C4A126882B1BF
:101CC00092F8311011F0010F18BF134609E093F894
:101CD0003120D207EFD5596802684A4099680A4214
:101CE000E9D11846704700BF808F0020848F002004
:101CF0002DE9F74F45682F783B09042B04468846A9
:101D000006D02046514B9847002003B0BDE8F08F25
:101D10004F4B6888984707F00F076389BF00BB42A5
:101D20000646EED323898342EBD339462846494BF6
:101D300098470028E5D13146474B20469847474A07
:101D40002B691360464BE968196091469A46454AEB
:101D5000454B46464FF0010B96F83110C90704D4A5
:101D6000BBF1000F3BD136683AE071680029F7D02B
:101D7000D9F800000192814206D03146009398477D
:101D8000009B019A0028EBD0DAF8000050B14146E0
:101D9000354B98470028B4D1DAF8003003F0F0034F
:101DA000E02BAED0002EACD0EB8823F0C00333B1D3
:101DB00020462E4B984704460028A5D045686B7AEC
:101DC0002B4F2C4EC7F80080062B356025D0112BE9
:101DD00017D0012B25D141462046274B14E0166829
:101DE000464508BF36684FF0000B002EB4D16B7A21
:101DF000112BC9D12F447B88B3F5884FC4D14646F7
:101E0000D0E71E4B41462046984700233B60336095
:101E1000CAF80030C9F8003076E741462046184B32
:101E2000F2E74146D9F800000F4B984750B9D9F86E
:101E3000003003F0F003E02B04D06560022120465F
:101E4000104B98472046014B9847DEE7252C0000B1
:101E5000A30F0000591C0000A92D0000C47F002022
:101E6000BC7F0020808F0020C51F0000F5220000ED
:101E7000C07F0020C87F0020011A000081530000AD
:101E800041410000491B00002DE9F04F87B01C467E
:101E90009DF844309DF84080029307468B46DDF85C
:101EA00048901646002A55D01421324A9047019096
:101EB00000285BD17D68029B2C726B7230682861B0
:101EC00081B24FEA104A452085F8018028704FEA18
:101ED000082848EA000844EA03243889264B03917D
:101EE00002939847019AAA71EA71244A6880029B7A
:101EF00001924444804610889847019AA88013882C
:101F0000039901331380BBF1000F02D0DBF80030DE
:101F10000BB9D9F80430EB60EB6814FA83F404EBE6
:101F2000134421448A44C244504483B203EB10401A
:101F300000EB1040C0436881B9F8283083B13A897A
:101F40009A420DD90E4B324649463846984707B05B
:101F5000BDE8F08F436806AE1B6946F8043DEBE729
:101F6000D9F81430324639464846EFE76FF00100A1
:101F7000EDE700BFCD2B00009D0F000028150020CD
:101F8000DD250000F0B5054685B01F4610460B4B19
:101F90000E461446984770B19DF82C3001939DF879
:101FA00028300290009322463B4631462846044C96
:101FB000A04705B0F0BD6FF00300FAE7B51C0000C4
:101FC000891E0000431E033311D891F8313013F0FD
:101FD00002030ED04A6890420BD08B6842401A42EE
:101FE00007D1DB4383430CBF012000207047012051
:101FF00070470020704700002DE9FF4103780C4630
:102000006A466F460DF10C0EA3F1300109296FD815
:10201000302B18D1437803F0DF0158290DBF8378A6
:1020200001300826023008BF1026451C0020A3F10D
:102030003001092905F1FF3807D800FB0630303898
:102040002B780135F3E70A26EFE7102E14D123F0A1
:1020500020014139C9B2A3F1610C05295FFA8CFC5A
:102060000AD8BCF11A0F03F10A0334BF61214121E0
:102070005B1A43EA0010E3E72E2B08D1724537D0F4
:1020800042F8040B98F8013008F10100BCE713F0A6
:10209000DF0F02D0093B042B2AD8D21B9210013249
:1020A000042A0AD8DFE802F02509030F1900B0F16D
:1020B000807F1DD2009B40EA036014B10F4B98470C
:1020C0002060012215E0B0F5803F11D2019B009AFB
:1020D0001B0443EA02631843EFE7FF2808D8019B7B
:1020E000009A1B0443EA0263029A43EA0223F2E7DE
:1020F0000022104604B0BDE8F08100BFA90F000027
:102100002DE9F347036801930DF103000DF1070C6E
:102110000F4600254FF00A0E4FF02E08447800239A
:102120000DF1080AB4FBFEF69A440EFB1644303457
:1021300003F101090AF8084C16F0FF045FFA89F967
:1021400017D100F8014FED1B3C46FF2B04EB0506B1
:1021500011D1964206F1010519DA604504F1010733
:1021600084F80080DAD100232370084602B0BDE86D
:10217000F0874B46D4E75F1E9642FFB207DA02AE05
:10218000334413F8083C04F8013B3B46DDE70020EC
:10219000ECE7000010B50446406908B1034B9847CE
:1021A00021460520024BBDE810401847252C0000B1
:1021B000E12900002DE9F047466873689A880446D3
:1021C0000F46002A2DD11A68426000F11C0100F16F
:1021D000080252F8040B43F8040B8A42F9D101219A
:1021E0003046164B9847164B30469847154B85B2EC
:1021F000304698476668DFF84880DFF8489096B91F
:10220000114E33689C4223680CBF33603B6021460B
:1022100004200E4B9847B3885B1BB3802846BDE86B
:10222000F0870025E6E773683046D3F800A0C04782
:1022300005443046ADB2C8475646E0E7591B00009A
:10224000FD2D0000252C00002C150020E1290000A8
:102250002DE9F843DFF86880DFF8689006460F46FE
:1022600000250024D8F80030214620464BB908B19B
:10227000C8470544BD4201DA012CF2DC2846BDE81E
:10228000F883D6F80CE05A69724509D1D6F810E007
:102290009A69724504D1B3F80CE0B288964507D02C
:1022A000013458B193F81FE0C27F964598BF184695
:1022B0001A68002A18BF19461346D7E71846F7E7E9
:1022C0002C150020B5210000084B70B51868084E89
:1022D000002400B970BDC37F056823B1013BC377FB
:1022E00004462846F5E72146B047FAE72C150020BA
:1022F000B52100002DE9F04F4468237803F00F0367
:10230000052B85B0054640F08E80A84EE088A84F8A
:10231000B04701906088B047237802902846039325
:10232000B847A44A0097938803440A2B804617466F
:1023300070DCD7F800904FF0000AB9F1000F77D1A8
:102340000420DFF890B2D847814650B94146204674
:10235000994B9847804566DC0420D8478146002881
:1023600061D0202200214846944B9847032289F8E7
:102370001F203A68C9F80020C7F80090224609F1EA
:10238000080104F1140052F8047B41F8047B8242F6
:10239000F9D1884A91888844A2F80480E18811F034
:1023A000200F144610D199F81E20039B42F0010221
:1023B00089F81E2003F00F02029BA3EB8202019B0F
:1023C00002EBC302A9F81C20D5F80480B8F802007B
:1023D000B04798F8007007F00F07A0EB8707B8F830
:1023E0000600B047C0F30C00C000BFB26968D9F85E
:1023F0000460888007440022BFB20A704A708A7065
:10240000CA70CF8001233EBB002A40F09180C9F8FA
:10241000045030E00146684B2046984718B1BB880D
:1024200043440A2B85DD2846654B984700256DE01F
:10243000E268D9F8141091420AD12269D9F818102B
:10244000914205D1B9F80C10A288914200F0928017
:10245000CA46D9F8009070E7D6F804C0BCF80480EA
:10246000404557D20E60002AD1D0D68886426ED819
:1024700047456CD8156099F81E2012F0010545D02B
:10248000002BD3D0D9F804205568AA88002ACDD1D2
:102490000A68002A52D1B9F81C202E681432A9F813
:1024A0001C20294609F1080209F11C0052F8047B9E
:1024B00041F8047B8242F9D1424AB9F81C00424FEC
:1024C000DFF81481904700226880AA71EA71AA722D
:1024D000EA72284614213D4A90476881D9F8045091
:1024E000002E3BD122683A4B9145D9F8002018BF05
:1024F000CAF8002049464FF0040008BF2260984700
:10250000009B28469847A388181AA080284605B043
:10251000BDE8F08F1BD0BCF80660864217D81AB110
:10252000D288424518BF0023DCF8006062466AE7A3
:102530001560D288824218BF00239CE75068C98882
:10254000828891427FF472AF02680146A1E7009B46
:1025500028469847A388181AA08064E7D6F804B0E4
:102560006FF013013046B84731462846C047DBF8C4
:102570000060B5E7E088B047C0F30C0000287FF4A6
:1025800008AFB9F80E00B047C0F30C0000283FF4C4
:1025900000AF224609F1080104F1140052F8047B4F
:1025A00041F8047B8242F9D1F3E600BFA30F00009B
:1025B000FD2D00002C15002051220000D5600000E8
:1025C000252C00009D0F0000CD2B0000591C0000A1
:1025D000E1290000C1290000172E00002DE9F04F6D
:1025E0008FB00B8D089343680C92069307910546B4
:1025F000D888564B98472C89C0F30C030593143C9C
:1026000000F400530A93A3B20393089B0822143BDF
:1026100093FBF2F39BB20993DB009BB20B93002672
:102620001427039B1BB918460FB0BDE8F08F059B1C
:10263000039AC3F30C0A0A9B43EA0A0A089B133B5A
:102640009342D4BF0B9B039B04934FF000024FF0C7
:1026500014014FF002003E4BD8BF4AF4005A98478D
:10266000804620B3069B42681946143153F8040B88
:1026700042F8040B8B42F9D16B68D8F804903B44C4
:102680006B606B89DF1B6F81049F002F32D06E89D6
:10269000BE4228BF3E46B6B20EB92D68F5E705200A
:1026A0002C4B9847834628B940462B4B98474FF010
:1026B000FF30B9E701966B6800930222034631466A
:1026C0000320264CA04720B959460520244B9847A3
:1026D000EAE70D90234B28469847BF1B224BCBF8C7
:1026E0001030CBF814500D99204B4046BFB298479C
:1026F000002FD2D15046DFF87CA0D047049BA9F828
:10270000060003F1140080B2D04789F80A70A9F8D6
:10271000020089F80B701421154B48469847079B17
:102720000C9AA9F80A005B690798414698470A4B3A
:1027300040469847039A049BD41AA3B20393099A7C
:10274000059B13449BB2059337466AE7A30F00002D
:102750007D2C0000C1290000252C0000792B0000F1
:10276000E12900000D2E000095210000172E000029
:10277000591C00009D0F00000A4B0B4A23F0030375
:102780004FF47A6100205880187158185060012069
:102790001360198083F8A40FA3F8A01FA3F8A21F49
:1027A00093607047CF7F002034150020F0B50028DB
:1027B00036D01C4A1368984232D35568A8422FD2AB
:1027C000002100F8041C30F8084C9168A0F10806BC
:1027D0008E4203EB040138BF96608E420ED00F7913
:1027E00067B98D420AD09568A942195B20F8081C88
:1027F000195B08BF96601944F41A4C8030F8061C27
:102800005C18A6420CD0257955B99568AE4208BF30
:10281000946030F8082C5A5230F8082C1344598030
:10282000F0BD00BF3415002003314FF6FC730B40A0
:102830000B2BF0B504D9B3F57A6F02D90020F0BDA7
:102840000C231F4D2A688242F9D869688842F6D263
:10285000A0F1080130F8086C891A89B2A6F10804C1
:10286000641AA4B29C42E9D3E9D0971997F804E01E
:10287000BEF1000F0BD101F108042344AC68965B54
:102880009BB2A74202EB03040DD1AC600BE003F155
:102890001407A742D3D801F1080423449BB2AF68C0
:1028A000D418BC42F1D300252571D652618020F89E
:1028B000083CD15AB1F57A6FC1D00A445380F0BDBB
:1028C000341500202DE9F04148B103304FF6FC7378
:1028D00003400B2B05D9B3F57A6F03D90020BDE86F
:1028E000F0810C23204CA76821687A1A92B2C3F5B4
:1028F0007A6C6FF007086245F0DA88188E5A90F803
:1029000004E0BEF1000F2CD1A8EB020535449D4236
:1029100027D303F1140C65451DD3083313449BB230
:10292000CD1885F804E0CE526A800122038002713E
:10293000CA5AB2F57A6F01D011444B80874207D151
:1029400094E8060003461D790DB1934206D1A360B9
:102950000830BDE8F08101230371EFE71B880B44C9
:10296000F1E73246C7E700BF341500202DE9F043F8
:10297000104A1148114C002322F003029E460546DE
:1029800004F1120C40F823E034F813809E004FEA63
:10299000430900218FB2B84504D80133092BF1D186
:1029A000BDE8F083AF59176039F80C70AA510131B6
:1029B0003A44EFE743150020B47D00208870000002
:1029C000082800D9FEE7054B03EB8003D3F8A402E7
:1029D00010B10268C3F8A422704700BF107B00202A
:1029E00039B1044B03EB8000D0F8A4320B60C0F87F
:1029F000A4127047107B002070470000F8B5054610
:102A00000C4659B10A6843689A4206D00D4B0E4FE6
:102A1000186828B90D4B1B6853B924686C60F8BD61
:102A200002686B68C6689A4200D1B8473046F0E742
:102A30001A6822B169688A4204BF22681A60DB689A
:102A4000EAE700BF908F002045370000988F0020F4
:102A500070B515461C46054B0646984705B12D68CE
:102A6000B56004B12468F46070BD00BFFD290000AA
:102A7000F8B5114F069E06623E7880F83460002556
:102A800006F1010E089E0661044645608560C5603A
:102A900080F831504562C561084E87F800E0B047C4
:102AA0002046079B984728B9054B1A6822601C608E
:102AB0002046F8BD2C46FBE7D87D0020512A0000B7
:102AC000808F002001B10968C160704701B10968B9
:102AD00081607047014B1860704700BF848F0020F1
:102AE00010B590F83130DA07044612D443F00103F0
:102AF00080F83130C36903B1984794F8313003F05E
:102B00003003302B05D1211D2046024BBDE810407B
:102B1000184710BD5558000010B590F83130DA074D
:102B200004460DD523F001029B0680F8312001D523
:102B3000044B9847E3691BB12046BDE81040184795
:102B400010BD00BF29580000084B002210B51A70B4
:102B5000074B1C6804B910BD606F20B1054B984746
:102B60000023636710BDE468F4E700BF888F00208E
:102B7000908F0020DD2F000070B5049D032823D81E
:102B8000DFE800F01E021A1C2220033020F00304AC
:102B9000BDF81400661886424FF0000015DC18607E
:102BA00085B12C445C6002201A730122587319818C
:102BB0005981DA81184670BD0E20E6E70020E4E76F
:102BC0003620E2E75D60EEE7002070BD10B5D9B1B8
:102BD00038B3002905DA4A42438992B2934201D2BE
:102BE000FEE78AB2047B43680CB1032C0ED15B1A5A
:102BF00000F11002934213D34360438989B20B441E
:102C00004381038919440181002010BD013C012C3E
:102C100006D8002904DA4489944201D35B1AEBE711
:102C2000012010BDF8B5014610B3124E124D00241C
:102C3000E0B201B9F8BDCB89013B9BB2CB81BBB9F6
:102C40004B7B0F689B0705D50B69084698470134F5
:102C50003946EDE70B7B032B02D10820A847F6E7A6
:102C6000013B012B01D80720F8E70846B047EEE703
:102C7000F8BD00BFAD270000E12900002DE9F047B5
:102C80000E461746032846D8DFE800F00D02090B70
:102C90002225032F3FD8DFE807F0587171080E2571
:102CA000F7E70025F5E73625F3E708203A4FB84760
:102CB000044628B9394B01221A702046BDE8F08736
:102CC000032142190D4425F00305C5F5BD65043502
:102CD000133222F00302B5424FF00003A8BF35467D
:102CE000426001224581017303600681C281751B28
:102CF00080468A469946002D04DC0123E3810023A7
:102D00006373DAE70820B84738B9244B01221A70F8
:102D10002046234B98470024CFE7AAB240F2EC5359
:102D20009A4280F80CA080F80D90C0F80090C8F886
:102D30000000028128BF1A4600F1100343600123FE
:102D40004281C381AD1A8046D5E705F11300F31C1B
:102D500023F0030320F00300184480B2114B98477E
:102D600004460028D7D04319133323F003034360EC
:102D700000230681468103600373BEE70720064BEC
:102D8000984704460028C6D0002343600681468148
:102D900003600773B1E700BFC1290000888F0020DE
:102DA000252C0000C528000038B503898B42044655
:102DB00018D90D46CB1A61898D4214D8237B4BB9A3
:102DC0008D4207D061680B4B091B2944204689B20C
:102DD0009847044620686581258108B1064B9847CD
:102DE0000023236038BD22896D1A1A442281ADB2B6
:102DF0002468E0E729280000252C00000346002273
:102E0000D0B2013203B970471B68F9E710B1C3892A
:102E10000133C381704710B500B109B9FEE7204600
:102E200003890A89046813440381002CF7D10160E7
:102E300010BD000010B5034B9847034B0846BDE892
:102E400010401847172E00000D2E00002DE9F84302
:102E50000C46054620B119B102890B899A4200D26D
:102E6000FEE74FF00008DFF87890474663896E89E7
:102E700061686868F61BA3EB08039E42ACBF9EB274
:102E8000B6B2324641443844C84737446389464461
:102E90001FFA86F843456B8998BF2468BFB298BF74
:102EA0004FF00008BB4210D12D686DB94CB1FEE760
:102EB000628923899A420AD1236843B1FEE7002C34
:102EC000D4D10020BDE8F8830027002CF0D16A8916
:102ED0002B899A42F3D12B68002BF0D0FEE700BF7C
:102EE000BF6000002DE9F84388461746054600B943
:102EF000FEE739B1DFF84490002607B11DB930462E
:102F0000BDE8F883FEE733B169898B4203D35B1ACE
:102F10009BB22D68F1E76C896968E41AA4B2BC42DF
:102F200028BF3C462246194408EB060026443C1BB9
:102F3000C847B6B2A7B20023EBE700BFBF600000EE
:102F4000704770B5016B858D846A02466B1A18193B
:102F5000D38E40F66836B34294BFC31A831B002B4E
:102F600001DBD58570BD631A002B4FF00000D6BF82
:102F7000091BD085D18570BD838D194489B241F27A
:102F8000D063994210B58CBF83858185084B044678
:102F9000984740F2B353984208DDA37F43F0020301
:102FA000A3772046034BBDE81040184710BD00BF73
:102FB000432F0000054C000010B5044648B140689E
:102FC00008B1044B984721460320034BBDE810404D
:102FD000184710BD252C0000E129000038B5034C2E
:102FE00000B938BD0568A0472846F9E7B92F0000A9
:102FF00038B50446094B03209847054660B1204682
:103000002B4604F1100250F8041B43F8041B9042B5
:10301000F9D16868024B9847284638BDC12900009D
:103020000D2E0000037E012B70B5044617D90A2B24
:1030300015D0806F18B10A4B98470023A367094E3B
:10304000606FB04700254FF6FF73A386E06E65679B
:10305000B047206FB047E5662567A4F86A5070BD99
:10306000252C0000DD2F00002DE9F04FAD4DAE4FB7
:103070002B68DFF8E49201332B603B7885B0013395
:103080003B700297A94BDFF8D4B21C680026984623
:103090005CB9A74FDFF8C4823E68DFF8A492002E27
:1030A00040F0298105B0BDE8F08F029B94F8212003
:1030B0001B789A4205D1D4F80CA0344626465446D3
:1030C000E6E7217E84F82130022994F8460002D1F7
:1030D000062800F0CD800C2800F0CA8094F8957086
:1030E000002F00F08E80934994F8942039440132E7
:1030F000C97BD2B2914284F8942074D90027227EF1
:10310000062A09D1A17FCB0606D52968606A091A6B
:10311000282984BF7B1CDFB294F808A01AF0080AA3
:1031200018D0042A02D0072A40F0B5802868626AC5
:10313000D4F89030801A03F5242101F6B8414FF4F9
:10314000FA7EB1FBFEF1884240F294807B1CDFB234
:103150004FF0010A606F68B12A68616A511AB4F9C8
:10316000442002EB4202B1EB420F03D3724A904774
:1031700000226267227E032A40F090802A68616AFA
:10318000521A282A02D8002F00F093802046D847F0
:10319000E368002E00F08A80F360BAF1000F09D0D6
:1031A000A38B0193638B00932246231DA16A206D9C
:1031B000624FB8472269D4F88C70D4F80CA00392FF
:1031C000214601205E4CA047002189F8001027B15C
:1031D000039A6FF009011046B84799F80030002BA8
:1031E0003FF46BAF4EE7062F98BF7B1C4FF00002F9
:1031F00098BF84F8953084F894202046514B984726
:103200007CE7B4F93420002AA4BF0132A286226FE1
:10321000002A3FF473AFB4F934E0B4F94420964582
:10322000FFF66CAF02290BD0B4F94010B4F942207C
:1032300002EBE1023F490144C97D8A40A4F84420E1
:103240000022B4F84C10A286B4F860208A4228BF4D
:103250000A46E18EA4F84C10480052088242A4F8B5
:103260004E20B8BFA4F84E00374A2046904746E7A4
:10327000012744E794F89620344901FB0232B2FB5F
:10328000FEF2904207D9324A2046904794F89620A1
:10329000013284F896204FF0000A5BE7092A7FF498
:1032A00072AF2A68616A521AF02A6BE7C8F80030D8
:1032B00073E7E27F94F82010D4F80CA00132D2B268
:1032C0009142E2773FF6FAAED4F88820E77789F8A2
:1032D000007072B121462069904799F80030002BA8
:1032E0007FF4D0AE00287FF4E9AE2046194B984712
:1032F000E4E63846F1E72B68726A9B1AF02B0AD88D
:103300003446F668CBE6E360D6F80CA031460120DF
:10331000C8475646C3E63046C047F368002CF2D192
:103320003B60F1E7948F0020D97D0020908F002032
:10333000A48F0020AC700000DD2F0000954E00002F
:10334000E129000095500000454F0000F8240100DD
:1033500029500000054C00008C8F00202530000013
:1033600003688B4210B50C4617D1CB68036000236D
:10337000E3602046124B9847237E0A2B0AD0012B8C
:1033800008D0A37FDA0705D543F00203A3772046D0
:103390000C4B98470023237610BD0B4A0021136085
:1033A0001BB90029E3D01360E1E7D868844204D157
:1033B00001B11360E268DA60D9E701210346EFE763
:1033C00025300000054C00009C8F002037B5037E9F
:1033D0000446002941D0042B01D0072B3DD1A26F18
:1033E00022B9A18D41F2D062914236D0A38B0193D4
:1033F000638B00932246231DA16A206D424DA8478E
:10340000424B20469847424A13689C4202D1E368E7
:1034100013600CE03F4A002113600BB939B1F7E7A4
:10342000D868844216D101B11360E268DA603A4B81
:1034300001221A70237E0025042BE5603AD10A236D
:103440002376364B1A68E2601C60354B98470020A3
:1034500003B030BD01210346DFE7072BF7D801A2F7
:1034600052F823F085340000C5340000D334000046
:10347000E5340000E53400004F3400004F34000014
:10348000FB340000638BABB1264A13689C4202D127
:10349000E36813600CE01F4A002113600BB939B1D7
:1034A000F7E7D86884420AD101B11360E268DA60B4
:1034B0000023E360214601201B4B9847C7E7012109
:1034C0000346EBE721461948194B9847214602204D
:1034D000F2E721460E48164B98470F4B0120187013
:1034E0002146E9E72046134B98470028B0D1052331
:1034F00023762046104B9847A9E720460D4B984766
:103500000028A5D10923F3E7954E000025300000DF
:10351000908F00209C8F00208C8F0020A48F002093
:10352000B9510000A08F0020E1290000988F0020F1
:10353000613300003D4B0000054C0000037E012B71
:103540001EBF837F43F0100383770121004B184790
:10355000CD33000010B5084614463AB1064B118928
:1035600098472046054B9847002010BD002BFBD103
:10357000034BBDE810401847792F0000252C0000B0
:103580003D350000F8B5866FD0F88050777B00237A
:1035900004468367E5B1014632460069A8470546FF
:1035A000E8B9BB0612D5A38DD4F8806041F2D06291
:1035B00093421CBF0133A38546B100231A4621461E
:1035C0002069B0470A3001D16FF009052846F8BDDF
:1035D0002B46014632462846044DA847DFE710F146
:1035E0000A05F1D0A6670025F0E700BF55350000B9
:1035F0002DE9F047174D184F2B78DFF86480013321
:103600002B703C68154EDFF85C902B780CB9BDE848
:10361000F08794F821209A42F8D084F82130A37FD3
:10362000DA0708D543F00203A3772046C047A37FFB
:1036300023F00303A377A36FD4F80CA00BB954466F
:10364000E3E7002320463370C8473378002BF6D0D9
:10365000D7E700BFD97D0020908F00208C8F0020FD
:10366000054C000085350000074B10B59847074A08
:1036700053780133DBB25370DB0703D5044BBDE84D
:103680001040184710BD00BFF1350000D97D002063
:1036900069300000037E0A2B2DE9F347224B234EAD
:1036A00004468A4609D1014621489847214601200F
:1036B000334602B0BDE8F0471847D0F85080D0F844
:1036C0002890D0F88C50076901461A4898471A4B41
:1036D000206F01221A7008B1184B9847E06E08B1AC
:1036E000164B9847606F08B1144B9847BAF1000F1A
:1036F0000AD0A38B0193638B00934046231D22467F
:103700004946DFF83C80C04721460120B0473DB123
:103710006FF0090138462B4602B0BDE8F047184764
:1037200002B0BDE8F08700BF61330000E12900006E
:10373000A48F0020908F00208C8F0020DD2F0000B0
:10374000954E00000121014B184700BF953600003F
:10375000034B044A5868126810445860704700BF11
:1037600004000020948F0020F8B507463B4D3C4EE6
:103770000120A8470446F0B93A4B30681B6821463F
:10378000002B53D114B12046374B98470120A8474E
:10379000044680B9354BD6F800C01B687F20A6468A
:1037A000002B4BD114B120462F4B98470120A8473E
:1037B0000446002838D0982200212D4B20469847F7
:1037C00040F66833A4F8663041F2D063A385E38500
:1037D000FF23A3724FF40673E3860623A4F8443054
:1037E000A4F842304FF6FF730021A3860123A4F80A
:1037F0004C3067761F4BA4F868106172A4F8401033
:103800009847336863621C4BA0651B7884F82130AD
:103810001A4BC4F880301A4B2065A064E065E1774C
:10382000C4F8903084F896102046F8BD5A6A821A7F
:103830008A4224BF1C461146DB68A1E7597E8F42AD
:1038400009D3814207D85A6AACEB0202724522BF03
:10385000084696461C46DB68A2E700BFC129000067
:10386000948F0020A48F002045370000908F002007
:10387000D560000051370000D97D0020553500008B
:1038800000DD6D0010B5074B04460846984730B17F
:10389000038D23B1283B9BB29C4228BF1C46204687
:1038A00010BD00BFB51C00002DE9F84FC3681F4EC6
:1038B000054698890C46B047C2071BD41C4FDFF859
:1038C0007C80DFF87C90CCB1D4F80CE038682B8990
:1038D000DEF80410228903440A449A1A002A10DAF6
:1038E0005B1A002B0ADD091A89B229816868114B1D
:1038F000984703E02046104B984700242C60BDE811
:10390000F88FBEF80C00B047C30709D5D5F80CB046
:103910000120BBF80CA0C0474AEA0000ABF80C003D
:10392000D4F800A02046C8475446CCE7A30F0000B7
:10393000DC7D0020A92D0000DD2F00009D0F000080
:10394000B92F00002DE9F74F9A4D2B79DE0604467A
:103950006AD5636D2A68B0F86010806D9E1A002EDB
:103960000CDB934203D1AB68C31A002B06DBAB68B8
:1039700098421BD1EB68DB898B4217D9EB68B4F80E
:103980006270DE896265B742AA68A265A4F86060C9
:1039900038BFA4F8626094F89520002E40F0FF80B4
:1039A00022B984F89460012384F89530AA68A66C43
:1039B000931B002B00F30E810023A4F864302B8AA4
:1039C000002B40F069830144B4F86030A06D0344DB
:1039D000994240F06183B4F93430002BC0F25C832B
:1039E000B24240F0598394F84720531CDBB29A420C
:1039F00038BF84F8473094F84730032B40F2D48026
:103A0000B4F84C20E38E13449BB29A4201D2A4F83E
:103A10004C30DFF8B881684FE36E002B40F05C81DA
:103A2000A26B002A40F09481288AA26A002800F044
:103A30002683237E062B00F222832B68D61A012EC2
:103A400000F1B381C3F10101091A1144002900F307
:103A5000AC81A86943899E42314640F3A481038921
:103A60009B1B9BB200264289914200F397814942F9
:103A700009B2524B9847A98B2B68A26A2A600B4463
:103A80009B1AAB832B6A5A602968A26A8B1A002B97
:103A9000C0F2EF824B1CA08D9B1A1B1A002B00F367
:103AA000E882914240F038822B6A434E9889AF8B6E
:103AB000B04710F0030018BF01203844A38D80B236
:103AC000834228822DD22B6A9889B047C3070ED52E
:103AD000D5F82080B8F80C703846B047384B00F065
:103AE0003E00984727F47C570743A8F80C70A38D35
:103AF000AB832B6A9889B047870748BFAB8BA8690F
:103B000044BF03F1FF33AB83A98B2E4B98472B6A3D
:103B1000AF8B9889B04710F0030018BF012007440D
:103B20002F82636F002B00F04E812B6A9889B0477B
:103B3000C00700F17981676FDFF88480DFF890902B
:103B40005FB3D7F80CE028682B8ADEF804203989A7
:103B500003441144591A002980F268819B1A002BF2
:103B60001BDD2B6A121AAA839889B047830748BFC6
:103B7000AB8BA86944BF03F1FF33AB83A98B114B17
:103B800098472B6AB5F81C809889B04710F003005D
:103B900018BF01208044A5F81080676713E1002A50
:103BA0003FF404AF0023FFE67FF433AF2046064B1B
:103BB00098472EE7DC7D0020A30F0000CD2B0000EE
:103BC0009D0F0000A92D0000D54F0000AD0F000093
:103BD000B92F0000216D511A002979DCA17FB4F9B9
:103BE0004060A264480741BF21F00401A177B4F806
:103BF0004E10A4F84C10B4F8421001EBE601A4F802
:103C00004410B4F866109BB2A4F864300B44A4F8D6
:103C10006630237E0020032B84F8460084F847009A
:103C20000CD9B4F84E30B4F84C209342E38E14D93A
:103C300013449BB29A4238BFA4F84C308E4F8F4E3B
:103C4000DFF84082236F63B9226F0023002A3DD141
:103C50004FF6FF72A286E377DBE65B4393FBF2F35A
:103C6000E6E7DB685868B847236FB3F808A0DB685D
:103C700081469889B047AB6810F0030018BF012057
:103C80005044A9EB030948440028DDDCD4F87090C7
:103C9000D9F800302367B4F864305BB1D9F80C3040
:103CA0009889B047C10742BFB4F8643003F1FF33CD
:103CB000A4F86430D9F80400C047B4F86830181A82
:103CC000A4F868006E4B48469847BBE7A386C2E756
:103CD0000023A4F864309CE6DB68AE685868C047EF
:103CE000E36EB3F80890DB6882469889B84710F015
:103CF000030018BF0120A6EB0A064844361A002E1E
:103D0000FFF68EAEAB68226D9B1A002B3FF788AE94
:103D1000E66E3368E3660BB9A4F86A30B4F8643031
:103D200053B1F3689889B847C20742BFB4F864300A
:103D300003F1FF33A4F864307068524B9847B4F82D
:103D40006830181AA4F868004D4B3046984763E66F
:103D5000E36BA9685B1A002BBFF666AE4A4BB4F959
:103D600040001968891AA1EBE00189B20BB2002B5F
:103D7000B4F942200844BCBF49420BB2A2EBA202F4
:103D8000134400B29BB2A4F8423003EBE003A4F862
:103D900044300023A4F84000A36345E60381468134
:103DA000891A00685FE6714262E69B1A002BBEBF6B
:103DB000A37F43F00203A37766E603686367B8470F
:103DC000606F0028F9D1298AA38D2A682F4F0A44F1
:103DD0005B1AA262A3852046B847AB6901971A898E
:103DE00012B16B620023AB612B6ADFF8A4A0988943
:103DF000DFF88CB0B047C70742BF95F8283043F0D2
:103E0000200385F828304FF00009676F27B1F96863
:103E1000A26A4B6893423DD0A37FD90776D523F0A1
:103E2000010343F0020373E0154FC9E7BEF80C002D
:103E3000B047C1071AD52B6A9889B047820715D4B5
:103E4000D5F820B00120BBF80CA0C0472B6A4AEA85
:103E50000000ABF80C009889B5F81CA0B04710F032
:103E6000030018BF01208244A5F810A0D7F800A0D5
:103E70003846C847574663E6AD0F0000A30F000061
:103E8000B92F0000FD2D0000948F0020432F00006B
:103E9000172E00002B608889B7F80880B04710F013
:103EA0000300A36AFA6818BF012040441844A062C6
:103EB0009089B7F80880B04710F00300A38D18BFB1
:103EC00001204044181AA085019B20469847796834
:103ED0000B8923B1686AB8B1D047C7F80490FB6872
:103EE0009889B047C0070AD595F8283043F02003D9
:103EF00085F82830237E042B04BF072323763B68F4
:103F000063673846D84780E76962E6E743F0010314
:103F1000A37703B0BDE8F08F2046614B9847666FEA
:103F200026B96048604B98476067F2E72B68002726
:103F300003F1FF3E03F1010CF06842689A4214D18C
:103F4000AA8B33899A42E4D95648574B98470028A0
:103F5000DFD047B138603146544B03B0BDE8F04F75
:103F600018470E46E8E76067F5E74FB9991A002948
:103F700028DA4C484C4B98470028CAD06067EAE7DB
:103F8000F9684968AEEB010100291BDBACEB0201CB
:103F9000002917DC4348444B984704460028B8D012
:103FA000FB6829685A683B8913445B1A002B05DDBE
:103FB000891A89B2398178683D4B98473C6031460F
:103FC0002046C9E7316837460029CAD19B1A002B21
:103FD0009FDD8089374FB847C2079AD43148324BAA
:103FE00098473060002894D0F36829685A6833896C
:103FF00013445B1A002B05DD891A89B23181706880
:104000002B4B98472B682A8AA16A1A44A38D0B442C
:104010009A427FF67EAF3368DB689889B847C3075A
:1040200010D53368D3F80C90B9F80C804046B847E7
:10403000214B00F03E00984728F47C5848EA0008DD
:10404000A9F80C80A18D2A683368891AA26A586879
:10405000114489B21981164B984733681C89DB6873
:104060009889B84710F0030018BF012004442C823F
:104070004FE70B4B204603B0BDE8F04F18472B68C5
:10408000991A002906DB01339B1AA28D9B1A002B7B
:104090007FF73FAFA37FC4E6002384F84730B8E43E
:1040A000914B0000F07D0020F12F0000A9380000A6
:1040B000A92D0000A30F00009D0F0000F8B51E4FB2
:1040C0001E4EFD680446A889B047C0F30F3005288E
:1040D0000ED9FB689889B047000B0538800014356D
:1040E00080B2002340F2B35640F2B457984200D851
:1040F000F8BDEA5C012A09D0FAD3022A05EB0301D4
:1041000007D04A78002AF3D0134400E001339BB271
:10411000ECE74A78042AEBD1DA1C8242E8DA91F81B
:1041200002E0CA7842EA0E22511E89B2B14288BF2B
:104130003A4622800433EAE7DC7D0020A30F00002A
:104140002DE9F04F4368944D944C8846197801F05E
:104150000F0103EB8103890087B049420646EB60FB
:10416000A047002840F0E7803389132B40F2E3801A
:104170008B4F8C4B386841469847B846002840F032
:10418000DA803B6803F0F003E02B00F0D480864F28
:10419000338900934246062339463046DFF8309291
:1041A000C8470597002840F0C680EB687F4F988984
:1041B000B847000BC0EB8030810009B23046A04701
:1041C0008246002840F0B780EC68DFF8089220882B
:1041D000B8472080EC686088B8476080EC68606809
:1041E000C8476060EC682860A068C847A060EC68B9
:1041F000A860E089B847EB68E0819889B847C3B206
:1042000013F00301B6F808B0D5F80CE0D8F800C0F8
:1042100018BF012103F03F0259442A718AB2029269
:10422000BDF808202A82624A106803900598039C12
:10423000006804909146504614B95E4A106881E0C7
:10424000B4F81CA0BEF8002092453CD1B4F81AA0E6
:10425000BEF80220924536D162681146049A914216
:1042600031D1226862452ED128B1E268C260039A3A
:10427000E2604F4A146000221B076A61A5F81CB077
:10428000AE61C5F820E06A6285F8282003D5737B0B
:1042900043F001037373A36F474E002B40F0ED8092
:1042A0002B7934605A0700F1008113F0020FA37FCD
:1042B00000F02981227E023A012A40F2248143F053
:1042C0000203A3770AE12046E468B5E7828BBEF8D3
:1042D00000A0924535D1428BBEF80240944230D1C5
:1042E00042681146049A8A422BD10268944528D12B
:1042F0005A0720D49F0711D52F68836AFB1A12D45E
:10430000828D9B1A002B0EDC0299274B244A8DE8E4
:1043100010043944A868294CA0470CE0DC0742BFD0
:10432000274B1B684362029B2BB1837F43F0020340
:104330008377244B9847244B304607B0BDE8F04FB5
:104340001847C0680028C1D1204A1468A246BAF1B3
:10435000000F0ED1BEF80C00B8474207EBD4EB6853
:10436000288A1A8801925B88009329680E4B0C4AB0
:10437000EAE2BAF81A20BEF802B0934508D1DAF89A
:1043800000B0DC4500F0C882BBF1000F00F0C48231
:104390005046DAF80CA0DAE7DC7D0020CD2B0000D7
:1043A000C47F0020C51F0000BC7F0020A30F0000B9
:1043B000908F0020A48F0020A88F0020954E000031
:1043C000948F0020054C0000252C0000988F0020C1
:1043D000C91B0000AD0F00009907ACD59AF8190071
:1043E000974B984707460028A5D0D8F800300360BF
:1043F000BAF81A304383059BEA681B68517843601A
:10440000137843EA01238383032303762B68591C23
:1044100081620163013BD2894365DAF810300361A0
:10442000DAF81430A0F86020A0F86220A0F84E203E
:1044300043619AF8083023F073030372D9F800300F
:10444000C360804BC9F8000098477F4B01221A7067
:1044500007F136007D4B9847391D7D4BF88E984704
:104460001221F8867B4B3846984720B121463846C2
:10447000794B98475FE738465BE72046774B98478C
:104480000A3007D0A36F002B3FF40AAF2B8A002B12
:104490003FF406AFA869002434606C6210B1704B21
:1044A0009847AC6107B0BDE8F08F237E022B0DD199
:1044B000226DAB689A4211D195F8283043F0080379
:1044C00085F82830A37F23F00103FAE62B68A26A5F
:1044D0009B1A03D4A28D9B1A002BEDDD95F8283092
:1044E0001A0740F1A281D4F88C301BB16FF00A0199
:1044F0002069984721465B485B4B9847214601203D
:104500005A4B9847C6E7DB065EBF594B1B68636290
:10451000002384F8963004F136004C4B9847237EF4
:10452000023B072BDAD8DFE813F008006E00E70043
:10453000EB003201E70050016E012B7903F012030A
:10454000122B4ED1236FDB6858684A4B9847AB68F3
:104550000130984245D1B4F86630A0640133A4F824
:1045600066302B68E08E5A1CA2622263EA68013B27
:10457000D28963650423E118A4F86020A4F86220BE
:104580002376334B984700EB80035B00A4F84E3052
:10459000B4F84C30E086012B04BF400080B2B4F880
:1045A0006830A4F84C00206F013BA4F86830036821
:1045B0002367314B9847236F3BB94FF6FF73A386B0
:1045C000D4F8843033B9A37F79E60023A38684F836
:1045D0004630F5E700222146206998470A30F2D19B
:1045E00058E72B79DF067FF579AFEB68288A1A88C0
:1045F000019229685B8800930144204B204AA868F7
:10460000204FB8476AE72B79D80668D5A36CA8680D
:10461000DB43C34258D4236DC31A002B54DC04235C
:10462000237663691BB92046174B984732E700226F
:1046300021462069984748B30A30F4D12AE700BFE1
:1046400069370000B95100008C8F0020BD40000088
:1046500085380000914A000095360000853500003D
:10466000252C0000908F002061330000E12900001C
:10467000948F0020AD0F0000B92F0000BC7F0020F8
:10468000C47F0020954E000045370000954BB4F8DC
:104690004C7020469847B4F8643013B1013BA4F83D
:1046A0006430E38E012F04BF5B009BB2A4F84C3052
:1046B00095F828309A067FF511AFA37F43F00203E7
:1046C000A3770723237609E7EB682F8A1A880192DC
:1046D00029685B880093844A844B394490E79907A2
:1046E0007FF5FCAEA36A2A68013B93427FF4F6AEE5
:1046F00020467F4B9847F1E620467A4B9847D7E70C
:10470000784B2046984795F8283013F0200F2B79E6
:1047100033D013F0100FA37F43F002032AD0216D92
:10472000AA68914226D1A3772046724B9847724AD5
:1047300013689C4202D1E36813600CE06F4A0021C9
:1047400013600BB939B1F7E7D86884420FD101B1D2
:104750001360E268DA606A4B01221A700A2323763A
:10476000684B1A68E2601C60674B9847B6E6012107
:104770000346E6E7A3770823A4E7DB067FF5AEAEA2
:10478000226DAB689A427FF4A9AE06239AE7554B97
:104790002046984795F828309F067FF59FAEA37F67
:1047A00043F00203A3772046524B9847524A1368BE
:1047B0009C42C0D0514A00211360002BC2D0D8685F
:1047C0008442C4D001210346F7E72046454B984771
:1047D0002B79D8067FF582AE226DAB689A427FF4C2
:1047E0007DAE444B20469847434A13689C42A2D072
:1047F000424A00211360002BA4D0D8688442A6D07E
:1048000001210346F7E7374B204698472B79D90615
:104810007FF564AEAB68226D9A4202BF95F82830EE
:1048200043F0100385F8283058E6DF060BD5A37F48
:10483000D8063FF55FAED4F88C30002B3FF45AAE6B
:104840006FF00B0154E6B4F8642092B96A6ACAB9F1
:1048500095F82830990606D5A36F002B2ED05A7BE9
:1048600042F020025A73002333602046274B9847BA
:1048700010E6E36F002BE9D02146206998470A3003
:10488000E4D107E6A37F13F0100303D01046204BBA
:104890009847C8E6D4F880705FB120692146B847D0
:1048A00010F10A0F3FF4F6AD0028D1D06B6AA36770
:1048B000CEE73B4638462146164FF0E7A38DD4F8A5
:1048C000807041F2D06293421CBF0133A385002F58
:1048D000C9D000231A4621462069B8470A30C2D100
:1048E000D8E500BF45390000C47F0020BC7F002010
:1048F0007D4F000025300000908F00209C8F00200D
:104900008C8F0020A48F0020B9510000054C0000BE
:10491000252C00005535000038B1DAF80C70C7605E
:104920000A48CAF80C40C0F800A058073FF503AD8C
:1049300013F010043FF450ADBEF80030286802991F
:104940008DE80C00024B034A0144E3E4988F0020F9
:10495000BC7F0020C47F00202DE9F84F9DF82880FF
:1049600018F0010F14BF0425002518F0020F9A4615
:1049700014BF0C23002381461D440320244B0F4603
:1049800016469847044628B93846224B9847204691
:10499000BDE8F88F80F80A803B8947605B1B4FF0C9
:1049A00000080381C0F80080142138461A4B98474C
:1049B000074620B12046194B98474446E7E763680D
:1049C000DFF86080D3F804B0C4F80CB0B9F81A006E
:1049D000C047ABF80000B9F81C00D4F80CB0C047D1
:1049E0000F4BABF802005046D4F80C90C5F3870586
:1049F0009847053546EA0535C9F80400A8B2D4F849
:104A00000C90C047E368A9F80C009F74DF74BEE700
:104A1000C1290000252C0000CD2B0000B92F00007B
:104A2000A90F00009D0F000014312DE9F04189B25B
:104A30000546904601200022124B98470746E8B1F0
:104A40004468114E688BB0472080A88BB0470F4B4D
:104A50006080C4F80480A86A9847A06045F21000FE
:104A6000B047A081E88DB047002323746374A3741A
:104A7000E374EA8DAB6AE08113442B633846BDE8EA
:104A8000F08100BF7D2C00009D0F0000A90F0000E9
:104A9000B0F86830072B73B504460D4606D9A37FDE
:104AA00063F07F03A3774FF0FF3039E001F002039A
:104AB000002BB0F8663015BF012600260421002126
:104AC000002BF0D000221046194B984701460028D1
:104AD000E5D00096E36D174E2A462046B0470028E1
:104AE000DDD0E36EFBB9E0660023AA07A4F86A30C4
:104AF00007D0E36D0133E365B4F86630013BA4F8F9
:104B00006630EB0742BFA37F43F02003A3774068E2
:104B1000094B9847B4F868301844A4F8680000209E
:104B200002B070BD13461A68002AFBD11860DBE79B
:104B30007D2C000059490000FD2D00002DE9F041B9
:104B4000C46E054634B9284601210E4BBDE8F0413C
:104B500018471C462368002BFBD1E36898890A4B51
:104B6000984710F00707EED1E668084BB48901209A
:104B700098472043B081AB7F43F02003AB773846A2
:104B8000BDE8F081914A0000A30F00009D0F0000D6
:104B90002DE9F341164B0446006D9847002102466B
:104BA000144B204698470546F8B1A37F4768DFF8C5
:104BB000508023F00303A377261D03890093214629
:104BC00006233246C04706223882A37A0192627ACF
:104BD0000092214632462846074CA0472846074BFC
:104BE0009847002002B0BDE8F0816FF00100F9E7BE
:104BF000A90F0000294A0000851F0000252C000095
:104C0000C91B0000974B1B6883422DE9F74F0446F0
:104C100029D0B0F86020B0F84C30C56E9A4228BF59
:104C20001A46837F9B07924610D52DB98E4B20469E
:104C300003B0BDE8F04F1847EB6858688B4B9847B6
:104C40002B89A26C9B1A18448245EFD3266F7EB93C
:104C5000864F002D3BD1E36E0BB9A4F86A30A37FD9
:104C600003F07F03A377002003B0BDE8F08F1E465A
:104C70003368002BFBD1EBE7EB685868B847F36863
:104C800080465868B847A8EB0000002819DA04F1FC
:104C90007008D8F8003033B9D8F800302B60C8F865
:104CA0000050E56ED5E7DB685868B847EB68814689
:104CB0005868B847A9EB00000028EDDAD8F8008062
:104CC000E7E73560C7E02846694B9847E9E7EB68B6
:104CD0005868B8472B89A26C9B1A18448245BAD3EE
:104CE000236F9BB1A27F12F0440F0FD1E36E2BB163
:104CF000196859B91989E38E994207D2B4F8663018
:104D000023B1B4F86830072B40F2A7802B68E36624
:104D1000237E022B0ED0D5F80C90564BB9F80C80A0
:104D20001020984748EA0000A9F80C00A37F23F060
:104D30000303A377A06ADFF84C81D5F80C90C04735
:104D40004C4BC9F80800E08DD5F80C909847E28DDF
:104D5000A36AA9F80E0013442363AB7A13F0010F82
:104D600004F104090BD04946434BD5F80CB040F28E
:104D7000B450984740F00170C047CBF81400B4F924
:104D80003430013304BF0023A386236833B9484677
:104D90003A4B9847002833D043682360A36B33B95C
:104DA000374B1B68A363EB685868B847E0636868D3
:104DB000D5F80C804368DFF8D0B0C0F80480A8EBC9
:104DC00003039AB243899B1A438103899B1A9BB2BE
:104DD00000220381214688F8102088F811200093D2
:104DE0004A460623D8470622A8F810000192627AA4
:104DF0000092A37A6868DFF894804A462146C0474B
:104E0000EB68DFF88C805868B847EB68B5F808B0F5
:104E100081469889C04710F0030018BF0120236D18
:104E2000EA68584448441B1A002BB8BF2065434623
:104E30009089B5F80880984710F0030018BF01204A
:104E400010EB080F3FF43FAF00232B60236F002BC4
:104E50007FF412AF25672E4623E712F0A00F7FF4F0
:104E600055AFF8E6A88F0020914B0000AD0F000071
:104E7000B92F00009D0F000085380000B51C000010
:104E8000948F0020A90F0000C91B0000851F00009F
:104E9000A30F00002DE9F74F81468A461746984632
:104EA000002214210120214BBDF83060BDF834B040
:104EB00098470546002836D0446830461C4EB04717
:104EC00020805846B04760804846DFF87090C84759
:104ED00060605046C847A06045F21400B0471623F2
:104EE000A3736FF02F030026E3732B89A081267430
:104EF0006674A674E6744246009339460623284633
:104F0000DFF83C90C8470623208242460193009672
:104F1000FF2339462846074CA047074B284603B0D5
:104F2000BDE8F04F184703B0BDE8F08F7D2C0000BE
:104F30009D0F0000851F0000252C0000A90F000018
:104F4000C91B0000026F10B492B111460B686BB917
:104F5000C46E0C60C26690F846200367013280F888
:104F6000462083635DF8044B034B18471946EDE771
:104F70005DF8044B704700BF054C00002DE9F0417F
:104F8000056F0446ADB12B68DFF84480036700F17C
:104F90006C0633687BB933682B6035602B680BB9BE
:104FA000A4F86A3094F84630013384F84630002380
:104FB000A363BDE8F081DB685868C047EB6807462B
:104FC0005868C047381A0028E5DA3668E1E700BFBC
:104FD000AD0F0000036F10B5044613B3837F5B076A
:104FE0001FD4104B9847B4F84C30B4F8602093426B
:104FF0008BBF52085B08A4F84E20A4F84E30E38E15
:10500000B4F84E105A009142B8BFA4F84E20134491
:10501000B4F84E201344A4F84C30A37F43F00403AB
:10502000A37710BD7D4F00002DE9F3410446006DCC
:10503000134B0138984700210246124B20469847EF
:105040000546D0B1261D03894768DFF844800093E8
:10505000324621460623C047002138820622A37A21
:1050600028468DE8060021463246074CA047074BEC
:10507000284602B0BDE8F041184702B0BDE8F08113
:10508000A90F0000294A0000851F0000252C000000
:10509000C91B00002DE9F341056F064615B9C56E21
:1050A000002D48D0EB689889244B984710F00104F4
:1050B00018BF2C89EB681CBFB4FA84F464095A68E1
:1050C0001F4B84F00101304698470746002832D034
:1050D000D0F8048024B311201A4BB8F90C4098473B
:1050E00024F47C542043A8F80C00341D3B89009321
:1050F0002246314606233846134DA8470021A8F81A
:10510000100006228DE80600B37A22463146384662
:105110000E4CA0470E4B384602B0BDE8F041184790
:1051200068682A8903890B4C9B1A9BB2012208F1FB
:105130001401A047D9E702B0BDE8F081A30F000039
:10514000294A00009D0F0000C91B0000851F0000B8
:10515000252C0000E52E000070B5154B04460620F6
:105160000E461546984708B312498660002303602F
:105170000B68C56044600BB9086070BD5A68944202
:1051800007D2121B5A600360F6E75468A1420AD3A3
:1051900013465A684168891A1A684160002AF4D196
:1051A0000260186070BD611A5160F9E770BD00BF00
:1051B000C1290000087E0020084B5A6862B9084ADD
:1051C000126812B9074A126832B101225A600649C0
:1051D000064B0022FA201847704700BF087E0020C7
:1051E000908F0020A48F0020F15100005951000041
:1051F000094B10B59847094B1B6813B9084B1B683E
:1052000033B100220749084BFA20BDE81040184787
:10521000064A536010BD00BF69360000908F002021
:10522000A48F0020F151000059510000087E002099
:1052300010B500220C4C0D494FF47A70A0470022A3
:105240000B4941F28830A04700220A494EF66020FF
:10525000A047002208494FF4FA70A047074B98472F
:10526000074B986010BD00BF59510000F15200007B
:10527000CD520000A952000085520000615D00007F
:10528000087E002010B5054B984700220449054BC5
:105290004FF4FA70BDE81040184700BF91180000A5
:1052A000855200005951000010B5054B9847002267
:1052B0000449054B4EF66020BDE81040184700BF7A
:1052C00065170000A95200005951000010B5054BA8
:1052D000984700220449054B41F28830BDE8104050
:1052E000184700BFE5570000CD520000595100009B
:1052F00010B5054B984700220449054B4FF47A70CE
:10530000BDE81040184700BFC9220000F15200005C
:10531000595100002DE9F84F134C23680BB3134B80
:10532000DFF84C80DFF84C90DFF84CA09847A56878
:105330000746451B98F8003003B1C847216881B182
:105340004B689D420DD38E68A760ED1A06200B684E
:105350002360D1F80CB0D047002EEBD05846B047B0
:10536000E8E7BDE8F88F00BF087E0020615D00001F
:10537000888F0020492B0000E129000070470000C1
:105380002DE9F04FD0F804A003898B469AF800105D
:1053900001F00F018A1CB3EB820F85B0054605DBD7
:1053A00089004942544B9847064628B1534B28463A
:1053B00005B0BDE8F04F1847514C524B20686F685C
:1053C00059469847504B0393804638889847039B2B
:1053D000814678889847442831D1B9F1430F3BD1B1
:1053E000DBF82430002B37D05C68002C34D06368A5
:1053F0001BB1464A126893422ED1FB884BB12B89D0
:1054000000933F4A4149424E11232846B0470028A5
:10541000CCD16FF007012846374EB0470028C5D1E0
:10542000002C51D0A669002EC0D0CDF80090374B8B
:10543000E0692A462146B04705B0BDE8F08F354BFC
:10544000D4F800C01B680393304B039CD3F800E0F2
:1054500033464CB9002B35D1294BDBF804201B68AF
:105460009A42A3D10024C8E7628A824227D12268E7
:10547000B8F1000F00D162B162450AD0B8F1000F57
:105480001DD032B182EA0C021146DBF8082011422D
:1054900015D123B9227C12F0040F08BF2346A28A3B
:1054A0004A450CD1626842B9002EA6D0E368F36089
:1054B000039BE360174B1C609FE77245F4D02646C0
:1054C000E468C6E71C4698E7B8F1000F7FF46EAFBA
:1054D0000B4B1B6803F0F003E02B3FF467AF9AF827
:1054E000001001F00F01023189002846B047032166
:1054F0002846094B984759E7CD2B0000252C000082
:10550000C47F0020C51F0000A30F0000BC7F002047
:10551000C91B0000AC8F0020491B0000F0B5234ED2
:10552000376800233C46D4B901B10968016082B9EB
:105530001F4C21884FF480454FF6FF7C61451ABF10
:105540004A1C92B24FF44042BE46BEF1000F1FD13A
:10555000228042820BB9C76030600020F0BD8442D7
:1055600014D0658A95420FD114B96FF00700F0BDD1
:10557000D4F800E0BEF1000FF7D00029F5D00D6897
:10558000002DF2D0AE45F0D0E468CCE70123FBE774
:10559000BEF81210914205D1013DADB2002DCDD122
:1055A0002280E2E7DEF80CE0CFE700BFAC8F0020FE
:1055B0000C0000202DE9F04F914685B0428ADDF8BD
:1055C000388005460F469A46002A40D008213846C2
:1055D000334B9847002844D13C46DFF8DCB0688A5A
:1055E0006668D84730805046D8472A6870800023C4
:1055F000B371F3715B46002A41D108F1040A208996
:105600009847B0802B7CDB070ED4238900934A4651
:10561000112351462046DFF8A4B0D8474FF6FF7358
:10562000002808BF1846F0801122AB7ACDF8088018
:1056300001926A7A009251464A462046194DA8477F
:10564000BC42064609D02046174B984705E0014664
:10565000164B984706460028B8D0304605B0BDE83E
:10566000F08F002208210120114B98470446A0B179
:105670003B89002BB1D039460E4B9847ADE7D8F89F
:1056800004108A4207D0BC4202D02046064B9847FD
:105690006FF00506E1E7AA46B1E74FF0FF36DCE719
:1056A000CD2B0000891E0000252C00001D55000098
:1056B0007D2C0000352E00009D0F0000C91B00004E
:1056C00070B51426074C46430546A05918B1064B41
:1056D00098470023A351142303FB05440023A3741C
:1056E00070BD00BF147E0020252C00002DE9F74F6F
:1056F000314B01910A2205460020814684468346AB
:1057000014469646164698460A2C9F7C10D18FB9AF
:1057100044B201300A2803F11403F5D1019B990723
:1057200003D40A2C1CD1DB0729D44FF0FF3009E049
:10573000002FEED0002D33D029688A4659688A455B
:105740002ED140B203B0BDE8F08FDA45E1D346B2C6
:10575000D346DEE7E24524BF4FFA80FED446D8E7C1
:10576000E4B225B1142303FB04832A685A6014238E
:1057700003FB0488002388F8133060B2E2E7BEF12F
:105780000A0F05D05FFA8EF420460C4B9847E8E7E5
:105790000A2E01D0F4B2F7E70A2AC6D0D4B2F3E752
:1057A000012F93F813A0D5D11F68002FCDD0CA4583
:1057B000AFD342B2D146ACE7147E0020C156000000
:1057C00030B44C681D6825609B88A3801368C4F8BA
:1057D00006309388638108232373002363738369EE
:1057E00030BC1847F8B50E4C0E4E00250227A27C9F
:1057F0005AB1E37C0133DBB2EF2BE37403D8012A07
:1058000009D1012B01D92846B04701350A2D04F1F1
:105810001404ECD1F8BD032A08BFA774F5E700BF54
:10582000147E0020C1560000F8B5084D084F06460A
:105830000024AB7C23B1AB68B34201D12046B8470A
:1058400001340A2C05F11405F3D1F8BD147E0020B3
:10585000C15600002DE9F04100220646884603208B
:105860002A21214B9847054600283AD044681F4B0F
:1058700001209847A082D6F82B30C4F81630B6F82D
:105880002F3063831A4B1A6822629A88A28453F8D5
:10589000062F22609B88A380D6F82B30C4F80630F0
:1058A000B6F82F3063817368E361D8F80030C4F82C
:1058B00026300023A3736374012206230421E174BC
:1058C000E273A3740822637322742273B3692946B6
:1058D00030469847074B0446284698472046BDE87F
:1058E000F0814FF0FF34F9E77D2C00009D0F0000A0
:1058F00064710000252C00002DE9F041114D0F4688
:10590000142101FB0258144698F81220022A064678
:105910000BD198F81330E32B07D9414604310A4BD9
:10592000984710B9032388F81230142303FB04535B
:10593000064C06F12B0239463046A4460C33BDE82E
:10594000F0416047147E002055580000C157000008
:105950002DE9F0418846074601463B4BD8F8000048
:1059600016469847002852D1D8F8003003F0F002CC
:10597000E02A4CD0002B4AD001214046334B9847B7
:10598000051E48DB324C142303FB0542917C09B908
:105990000121917403FB05439B7C012B00D036B998
:1059A000414638462B4B98471EB9BDE8F0814FF071
:1059B000FF30142303FB0542927C012A0ED90C22EE
:1059C00013FB052384F8C8502344234C07F12B0212
:1059D00031463846A446BDE8F041604731D13346F0
:1059E00083B930461D4B98473EB3374614236B436B
:1059F000E05808B11A4B984714235D4300206751C3
:105A0000BDE8F0811A7B012A08D11B68E8E76FF036
:105A10000D00BDE8F0812846BDE8F0811989114BE1
:105A2000002203209847074638B131460E4B98476D
:105A30000028DBD038460A4B98474FF0FF30BDE8CE
:105A4000F081BDE8F08100BFC51F0000ED560000E9
:105A5000147E002055580000C15700000D2E000094
:105A6000252C00007D2C00004D2E0000F7B50E46C1
:105A700004460E213046364B15469847002860D123
:105A800021462868334B9847002858D12B6803F0EB
:105A9000F002E02A1AD101238DF800305E238DF840
:105AA00002306B788DF8010003F07F038DF803302E
:105AB000AB788DF80430EB788DF805306B4604F147
:105AC0002B0231462046244CA0471EE06268A168A4
:105AD0005A400A4208D09BB24FF6A962934203D0C3
